{
  "contractName": "Certificate",
  "abi": [
    {
      "inputs": [],
      "stateMutability": "nonpayable",
      "type": "constructor"
    },
    {
      "anonymous": false,
      "inputs": [
        {
          "indexed": false,
          "internalType": "string",
          "name": "etudiant",
          "type": "string"
        },
        {
          "indexed": false,
          "internalType": "string",
          "name": "certifier",
          "type": "string"
        },
        {
          "indexed": false,
          "internalType": "uint256",
          "name": "id",
          "type": "uint256"
        }
      ],
      "name": "Issued",
      "type": "event"
    },
    {
      "inputs": [
        {
          "internalType": "uint256",
          "name": "",
          "type": "uint256"
        }
      ],
      "name": "Certificates",
      "outputs": [
        {
          "internalType": "uint256",
          "name": "id",
          "type": "uint256"
        },
        {
          "internalType": "string",
          "name": "Specialite",
          "type": "string"
        },
        {
          "internalType": "string",
          "name": "Session",
          "type": "string"
        },
        {
          "internalType": "string",
          "name": "Nom",
          "type": "string"
        },
        {
          "internalType": "uint256",
          "name": "dateNaissance",
          "type": "uint256"
        },
        {
          "internalType": "string",
          "name": "lieuNaissance",
          "type": "string"
        },
        {
          "internalType": "string",
          "name": "identifiant",
          "type": "string"
        },
        {
          "internalType": "string",
          "name": "Nationalite",
          "type": "string"
        },
        {
          "internalType": "bool",
          "name": "isDeleted",
          "type": "bool"
        },
        {
          "internalType": "string",
          "name": "numCertificat",
          "type": "string"
        },
        {
          "internalType": "uint256",
          "name": "dateRealisation",
          "type": "uint256"
        }
      ],
      "stateMutability": "view",
      "type": "function",
      "constant": true
    },
    {
      "inputs": [
        {
          "internalType": "uint256",
          "name": "",
          "type": "uint256"
        }
      ],
      "name": "Issuers",
      "outputs": [
        {
          "internalType": "address",
          "name": "issuerAddress",
          "type": "address"
        },
        {
          "internalType": "string",
          "name": "issuerName",
          "type": "string"
        },
        {
          "internalType": "uint256",
          "name": "dateRealisation",
          "type": "uint256"
        },
        {
          "internalType": "string",
          "name": "numCertificat",
          "type": "string"
        }
      ],
      "stateMutability": "view",
      "type": "function",
      "constant": true
    },
    {
      "inputs": [
        {
          "internalType": "uint256",
          "name": "",
          "type": "uint256"
        }
      ],
      "name": "certs",
      "outputs": [
        {
          "internalType": "uint256",
          "name": "",
          "type": "uint256"
        }
      ],
      "stateMutability": "view",
      "type": "function",
      "constant": true
    },
    {
      "inputs": [
        {
          "internalType": "uint256",
          "name": "",
          "type": "uint256"
        }
      ],
      "name": "iss",
      "outputs": [
        {
          "internalType": "uint256",
          "name": "",
          "type": "uint256"
        }
      ],
      "stateMutability": "view",
      "type": "function",
      "constant": true
    },
    {
      "inputs": [
        {
          "internalType": "string",
          "name": "_etudiant",
          "type": "string"
        },
        {
          "internalType": "string",
          "name": "_specialite",
          "type": "string"
        },
        {
          "internalType": "string",
          "name": "_session",
          "type": "string"
        },
        {
          "internalType": "uint256",
          "name": "_dateNaissance",
          "type": "uint256"
        },
        {
          "internalType": "string",
          "name": "_lieuNaissance",
          "type": "string"
        },
        {
          "internalType": "string",
          "name": "_identifiant",
          "type": "string"
        },
        {
          "internalType": "string",
          "name": "_nationalite",
          "type": "string"
        },
        {
          "internalType": "uint256",
          "name": "_dateRealisation",
          "type": "uint256"
        },
        {
          "internalType": "string",
          "name": "_numCertificat",
          "type": "string"
        }
      ],
      "name": "issueCertificate",
      "outputs": [],
      "stateMutability": "nonpayable",
      "type": "function"
    },
    {
      "inputs": [
        {
          "internalType": "uint256",
          "name": "_id",
          "type": "uint256"
        },
        {
          "internalType": "string",
          "name": "_etudiant",
          "type": "string"
        },
        {
          "internalType": "string",
          "name": "_specialite",
          "type": "string"
        },
        {
          "internalType": "string",
          "name": "_session",
          "type": "string"
        },
        {
          "internalType": "uint256",
          "name": "_dateNaissance",
          "type": "uint256"
        },
        {
          "internalType": "string",
          "name": "_lieuNaissance",
          "type": "string"
        },
        {
          "internalType": "string",
          "name": "_identifiant",
          "type": "string"
        },
        {
          "internalType": "string",
          "name": "_nationalite",
          "type": "string"
        },
        {
          "internalType": "uint256",
          "name": "_dateRealisation",
          "type": "uint256"
        },
        {
          "internalType": "string",
          "name": "_numCertificat",
          "type": "string"
        }
      ],
      "name": "updateCertificate",
      "outputs": [],
      "stateMutability": "nonpayable",
      "type": "function"
    },
    {
      "inputs": [
        {
          "internalType": "uint256",
          "name": "_id",
          "type": "uint256"
        }
      ],
      "name": "deleteCertificate",
      "outputs": [],
      "stateMutability": "nonpayable",
      "type": "function"
    },
    {
      "inputs": [
        {
          "internalType": "uint256",
          "name": "_id",
          "type": "uint256"
        }
      ],
      "name": "activateCertificate",
      "outputs": [],
      "stateMutability": "nonpayable",
      "type": "function"
    },
    {
      "inputs": [
        {
          "internalType": "uint256",
          "name": "_id",
          "type": "uint256"
        }
      ],
      "name": "getCertificate",
      "outputs": [
        {
          "internalType": "string",
          "name": "",
          "type": "string"
        },
        {
          "internalType": "string",
          "name": "",
          "type": "string"
        },
        {
          "internalType": "string",
          "name": "",
          "type": "string"
        },
        {
          "internalType": "uint256",
          "name": "",
          "type": "uint256"
        },
        {
          "internalType": "string",
          "name": "",
          "type": "string"
        },
        {
          "internalType": "string",
          "name": "",
          "type": "string"
        },
        {
          "internalType": "string",
          "name": "",
          "type": "string"
        }
      ],
      "stateMutability": "view",
      "type": "function",
      "constant": true
    },
    {
      "inputs": [
        {
          "internalType": "uint256",
          "name": "_id",
          "type": "uint256"
        }
      ],
      "name": "getIssuer",
      "outputs": [
        {
          "internalType": "address",
          "name": "",
          "type": "address"
        },
        {
          "internalType": "string",
          "name": "",
          "type": "string"
        },
        {
          "internalType": "uint256",
          "name": "",
          "type": "uint256"
        },
        {
          "internalType": "string",
          "name": "",
          "type": "string"
        }
      ],
      "stateMutability": "view",
      "type": "function",
      "constant": true
    },
    {
      "inputs": [
        {
          "internalType": "string",
          "name": "_identifiant",
          "type": "string"
        }
      ],
      "name": "getCertificates",
      "outputs": [
        {
          "internalType": "string[]",
          "name": "",
          "type": "string[]"
        }
      ],
      "stateMutability": "view",
      "type": "function",
      "constant": true
    },
    {
      "inputs": [
        {
          "internalType": "string",
          "name": "_etudiant",
          "type": "string"
        },
        {
          "internalType": "string",
          "name": "_specialite",
          "type": "string"
        },
        {
          "internalType": "string",
          "name": "_session",
          "type": "string"
        },
        {
          "internalType": "uint256",
          "name": "_dateNaissance",
          "type": "uint256"
        },
        {
          "internalType": "string",
          "name": "_lieuNaissance",
          "type": "string"
        },
        {
          "internalType": "string",
          "name": "_identifiant",
          "type": "string"
        },
        {
          "internalType": "string",
          "name": "_nationalite",
          "type": "string"
        },
        {
          "internalType": "uint256",
          "name": "_dateRealisation",
          "type": "uint256"
        },
        {
          "internalType": "string",
          "name": "_numCertificat",
          "type": "string"
        }
      ],
      "name": "verifyCertificate",
      "outputs": [
        {
          "internalType": "bool",
          "name": "",
          "type": "bool"
        }
      ],
      "stateMutability": "view",
      "type": "function",
      "constant": true
    },
    {
      "inputs": [],
      "name": "totalCertificates",
      "outputs": [
        {
          "internalType": "uint256",
          "name": "",
          "type": "uint256"
        }
      ],
      "stateMutability": "view",
      "type": "function",
      "constant": true
    }
  ],
  "bytecode": "0x608060405234801561001057600080fd5b50336000806101000a81548173ffffffffffffffffffffffffffffffffffffffff021916908373ffffffffffffffffffffffffffffffffffffffff1602179055506000600181905550613112806100686000396000f3fe608060405234801561001057600080fd5b50600436106100cf5760003560e01c80636a6dc0881161008c57806392089c461161006657806392089c46146102535780639622c83614610286578063e5ba178b146102c0578063f872c8f1146102dc576100cf565b80636a6dc088146101eb5780637c4733de1461021b578063883eeb6e14610237576100cf565b806302e19bce146100d45780631df23fb81461010457806351640fee14610134578063596b772f1461016a578063646750d61461018857806369c84375146101b8575b600080fd5b6100ee60048036038101906100e991906127e7565b6102f8565b6040516100fb9190612d26565b60405180910390f35b61011e60048036038101906101199190612955565b610d35565b60405161012b9190612e5f565b60405180910390f35b61014e60048036038101906101499190612955565b610d59565b6040516101619796959493929190612d63565b60405180910390f35b61017261126c565b60405161017f9190612e5f565b60405180910390f35b6101a2600480360381019061019d9190612955565b611276565b6040516101af9190612e5f565b60405180910390f35b6101d260048036038101906101cd9190612955565b61129a565b6040516101e29493929190612cb1565b60405180910390f35b610205600480360381019061020091906127a6565b61141a565b6040516102129190612d04565b60405180910390f35b6102356004803603810190610230919061297e565b6119d8565b005b610251600480360381019061024c9190612955565b611b47565b005b61026d60048036038101906102689190612955565b611bd1565b60405161027d9493929190612cb1565b60405180910390f35b6102a0600480360381019061029b9190612955565b611dc3565b6040516102b79b9a99989796959493929190612e7a565b60405180910390f35b6102da60048036038101906102d59190612955565b612252565b005b6102f660048036038101906102f191906127e7565b6122dc565b005b6000806002600060015481526020019081526020016000206040518061016001604052908160008201548152602001600182018054600181600116156101000203166002900480601f0160208091040260200160405190810160405280929190818152602001828054600181600116156101000203166002900480156103bf5780601f10610394576101008083540402835291602001916103bf565b820191906000526020600020905b8154815290600101906020018083116103a257829003601f168201915b50505050508152602001600282018054600181600116156101000203166002900480601f0160208091040260200160405190810160405280929190818152602001828054600181600116156101000203166002900480156104615780601f1061043657610100808354040283529160200191610461565b820191906000526020600020905b81548152906001019060200180831161044457829003601f168201915b50505050508152602001600382018054600181600116156101000203166002900480601f0160208091040260200160405190810160405280929190818152602001828054600181600116156101000203166002900480156105035780601f106104d857610100808354040283529160200191610503565b820191906000526020600020905b8154815290600101906020018083116104e657829003601f168201915b5050505050815260200160048201548152602001600582018054600181600116156101000203166002900480601f0160208091040260200160405190810160405280929190818152602001828054600181600116156101000203166002900480156105af5780601f10610584576101008083540402835291602001916105af565b820191906000526020600020905b81548152906001019060200180831161059257829003601f168201915b50505050508152602001600682018054600181600116156101000203166002900480601f0160208091040260200160405190810160405280929190818152602001828054600181600116156101000203166002900480156106515780601f1061062657610100808354040283529160200191610651565b820191906000526020600020905b81548152906001019060200180831161063457829003601f168201915b50505050508152602001600782018054600181600116156101000203166002900480601f0160208091040260200160405190810160405280929190818152602001828054600181600116156101000203166002900480156106f35780601f106106c8576101008083540402835291602001916106f3565b820191906000526020600020905b8154815290600101906020018083116106d657829003601f168201915b505050505081526020016008820160009054906101000a900460ff16151515158152602001600982018054600181600116156101000203166002900480601f0160208091040260200160405190810160405280929190818152602001828054600181600116156101000203166002900480156107b05780601f10610785576101008083540402835291602001916107b0565b820191906000526020600020905b81548152906001019060200180831161079357829003601f168201915b50505050508152602001600a82015481525050905060006003600060015481526020019081526020016000206040518060800160405290816000820160009054906101000a900473ffffffffffffffffffffffffffffffffffffffff1673ffffffffffffffffffffffffffffffffffffffff1673ffffffffffffffffffffffffffffffffffffffff168152602001600182018054600181600116156101000203166002900480601f0160208091040260200160405190810160405280929190818152602001828054600181600116156101000203166002900480156108d65780601f106108ab576101008083540402835291602001916108d6565b820191906000526020600020905b8154815290600101906020018083116108b957829003601f168201915b5050505050815260200160028201548152602001600382018054600181600116156101000203166002900480601f0160208091040260200160405190810160405280929190818152602001828054600181600116156101000203166002900480156109825780601f1061095757610100808354040283529160200191610982565b820191906000526020600020905b81548152906001019060200180831161096557829003601f168201915b505050505081525050905060405160200161099c90612e3f565b6040516020818303038152906040528051906020012081602001516040516020016109c79190612d41565b60405160208183030381529060405280519060200120148015610a3957508a6040516020016109f69190612d41565b604051602081830303815290604052805190602001208260200151604051602001610a219190612d41565b60405160208183030381529060405280519060200120145b8015610a94575089604051602001610a519190612d41565b604051602081830303815290604052805190602001208260400151604051602001610a7c9190612d41565b60405160208183030381529060405280519060200120145b8015610aef57508b604051602001610aac9190612d41565b604051602081830303815290604052805190602001208260600151604051602001610ad79190612d41565b60405160208183030381529060405280519060200120145b8015610b4a575088604051602001610b079190612e5f565b604051602081830303815290604052805190602001208260800151604051602001610b329190612e5f565b60405160208183030381529060405280519060200120145b8015610ba5575087604051602001610b629190612d41565b604051602081830303815290604052805190602001208260a00151604051602001610b8d9190612d41565b60405160208183030381529060405280519060200120145b8015610c00575086604051602001610bbd9190612d41565b604051602081830303815290604052805190602001208260c00151604051602001610be89190612d41565b60405160208183030381529060405280519060200120145b8015610c5b575085604051602001610c189190612d41565b604051602081830303815290604052805190602001208260e00151604051602001610c439190612d41565b60405160208183030381529060405280519060200120145b8015610cb6575084604051602001610c739190612e5f565b604051602081830303815290604052805190602001208160400151604051602001610c9e9190612e5f565b60405160208183030381529060405280519060200120145b8015610d11575083604051602001610cce9190612d41565b604051602081830303815290604052805190602001208160600151604051602001610cf99190612d41565b60405160208183030381529060405280519060200120145b15610d2157600192505050610d28565b6000925050505b9998505050505050505050565b60058181548110610d4557600080fd5b906000526020600020016000915090505481565b6060806060600060608060606000600260008a81526020019081526020016000206040518061016001604052908160008201548152602001600182018054600181600116156101000203166002900480601f016020809104026020016040519081016040528092919081815260200182805460018160011615610100020316600290048015610e295780601f10610dfe57610100808354040283529160200191610e29565b820191906000526020600020905b815481529060010190602001808311610e0c57829003601f168201915b50505050508152602001600282018054600181600116156101000203166002900480601f016020809104026020016040519081016040528092919081815260200182805460018160011615610100020316600290048015610ecb5780601f10610ea057610100808354040283529160200191610ecb565b820191906000526020600020905b815481529060010190602001808311610eae57829003601f168201915b50505050508152602001600382018054600181600116156101000203166002900480601f016020809104026020016040519081016040528092919081815260200182805460018160011615610100020316600290048015610f6d5780601f10610f4257610100808354040283529160200191610f6d565b820191906000526020600020905b815481529060010190602001808311610f5057829003601f168201915b5050505050815260200160048201548152602001600582018054600181600116156101000203166002900480601f0160208091040260200160405190810160405280929190818152602001828054600181600116156101000203166002900480156110195780601f10610fee57610100808354040283529160200191611019565b820191906000526020600020905b815481529060010190602001808311610ffc57829003601f168201915b50505050508152602001600682018054600181600116156101000203166002900480601f0160208091040260200160405190810160405280929190818152602001828054600181600116156101000203166002900480156110bb5780601f10611090576101008083540402835291602001916110bb565b820191906000526020600020905b81548152906001019060200180831161109e57829003601f168201915b50505050508152602001600782018054600181600116156101000203166002900480601f01602080910402602001604051908101604052809291908181526020018280546001816001161561010002031660029004801561115d5780601f106111325761010080835404028352916020019161115d565b820191906000526020600020905b81548152906001019060200180831161114057829003601f168201915b505050505081526020016008820160009054906101000a900460ff16151515158152602001600982018054600181600116156101000203166002900480601f01602080910402602001604051908101604052809291908181526020018280546001816001161561010002031660029004801561121a5780601f106111ef5761010080835404028352916020019161121a565b820191906000526020600020905b8154815290600101906020018083116111fd57829003601f168201915b50505050508152602001600a82015481525050905080602001518160400151826060015183608001518460a001518560c001518660e00151975097509750975097509750975050919395979092949650565b6000600154905090565b6004818154811061128657600080fd5b906000526020600020016000915090505481565b60036020528060005260406000206000915090508060000160009054906101000a900473ffffffffffffffffffffffffffffffffffffffff1690806001018054600181600116156101000203166002900480601f01602080910402602001604051908101604052809291908181526020018280546001816001161561010002031660029004801561136c5780601f106113415761010080835404028352916020019161136c565b820191906000526020600020905b81548152906001019060200180831161134f57829003601f168201915b505050505090806002015490806003018054600181600116156101000203166002900480601f0160208091040260200160405190810160405280929190818152602001828054600181600116156101000203166002900480156114105780601f106113e557610100808354040283529160200191611410565b820191906000526020600020905b8154815290600101906020018083116113f357829003601f168201915b5050505050905084565b6060600060048054905067ffffffffffffffff8111801561143a57600080fd5b5060405190808252806020026020018201604052801561146e57816020015b60608152602001906001900390816114595790505b50905060005b6004805490508110156119ce576000600260008381526020019081526020016000206040518061016001604052908160008201548152602001600182018054600181600116156101000203166002900480601f0160208091040260200160405190810160405280929190818152602001828054600181600116156101000203166002900480156115455780601f1061151a57610100808354040283529160200191611545565b820191906000526020600020905b81548152906001019060200180831161152857829003601f168201915b50505050508152602001600282018054600181600116156101000203166002900480601f0160208091040260200160405190810160405280929190818152602001828054600181600116156101000203166002900480156115e75780601f106115bc576101008083540402835291602001916115e7565b820191906000526020600020905b8154815290600101906020018083116115ca57829003601f168201915b50505050508152602001600382018054600181600116156101000203166002900480601f0160208091040260200160405190810160405280929190818152602001828054600181600116156101000203166002900480156116895780601f1061165e57610100808354040283529160200191611689565b820191906000526020600020905b81548152906001019060200180831161166c57829003601f168201915b5050505050815260200160048201548152602001600582018054600181600116156101000203166002900480601f0160208091040260200160405190810160405280929190818152602001828054600181600116156101000203166002900480156117355780601f1061170a57610100808354040283529160200191611735565b820191906000526020600020905b81548152906001019060200180831161171857829003601f168201915b50505050508152602001600682018054600181600116156101000203166002900480601f0160208091040260200160405190810160405280929190818152602001828054600181600116156101000203166002900480156117d75780601f106117ac576101008083540402835291602001916117d7565b820191906000526020600020905b8154815290600101906020018083116117ba57829003601f168201915b50505050508152602001600782018054600181600116156101000203166002900480601f0160208091040260200160405190810160405280929190818152602001828054600181600116156101000203166002900480156118795780601f1061184e57610100808354040283529160200191611879565b820191906000526020600020905b81548152906001019060200180831161185c57829003601f168201915b505050505081526020016008820160009054906101000a900460ff16151515158152602001600982018054600181600116156101000203166002900480601f0160208091040260200160405190810160405280929190818152602001828054600181600116156101000203166002900480156119365780601f1061190b57610100808354040283529160200191611936565b820191906000526020600020905b81548152906001019060200180831161191957829003601f168201915b50505050508152602001600a8201548152505090508460405160200161195c9190612c9a565b604051602081830303815290604052805190602001208160c001516040516020016119879190612c9a565b6040516020818303038152906040528051906020012014156119c05780606001518383815181106119b457fe5b60200260200101819052505b508080600101915050611474565b5080915050919050565b87600260008c81526020019081526020016000206001019080519060200190611a0292919061267e565b5086600260008c81526020019081526020016000206002019080519060200190611a2d92919061267e565b5088600260008c81526020019081526020016000206003019080519060200190611a5892919061267e565b5085600260008c81526020019081526020016000206004018190555084600260008c81526020019081526020016000206005019080519060200190611a9e92919061267e565b5083600260008c81526020019081526020016000206006019080519060200190611ac992919061267e565b5082600260008c81526020019081526020016000206007019080519060200190611af492919061267e565b5081600360008c81526020019081526020016000206002018190555080600360008c81526020019081526020016000206003019080519060200190611b3a92919061267e565b5050505050505050505050565b60008054906101000a900473ffffffffffffffffffffffffffffffffffffffff1673ffffffffffffffffffffffffffffffffffffffff163373ffffffffffffffffffffffffffffffffffffffff1614611b9f57600080fd5b60016002600083815260200190815260200160002060080160006101000a81548160ff02191690831515021790555050565b60006060600060606000600360008781526020019081526020016000206040518060800160405290816000820160009054906101000a900473ffffffffffffffffffffffffffffffffffffffff1673ffffffffffffffffffffffffffffffffffffffff1673ffffffffffffffffffffffffffffffffffffffff168152602001600182018054600181600116156101000203166002900480601f016020809104026020016040519081016040528092919081815260200182805460018160011615610100020316600290048015611ce85780601f10611cbd57610100808354040283529160200191611ce8565b820191906000526020600020905b815481529060010190602001808311611ccb57829003601f168201915b5050505050815260200160028201548152602001600382018054600181600116156101000203166002900480601f016020809104026020016040519081016040528092919081815260200182805460018160011615610100020316600290048015611d945780601f10611d6957610100808354040283529160200191611d94565b820191906000526020600020905b815481529060010190602001808311611d7757829003601f168201915b505050505081525050905080600001518160200151826040015183606001519450945094509450509193509193565b6002602052806000526040600020600091509050806000015490806001018054600181600116156101000203166002900480601f016020809104026020016040519081016040528092919081815260200182805460018160011615610100020316600290048015611e755780601f10611e4a57610100808354040283529160200191611e75565b820191906000526020600020905b815481529060010190602001808311611e5857829003601f168201915b505050505090806002018054600181600116156101000203166002900480601f016020809104026020016040519081016040528092919081815260200182805460018160011615610100020316600290048015611f135780601f10611ee857610100808354040283529160200191611f13565b820191906000526020600020905b815481529060010190602001808311611ef657829003601f168201915b505050505090806003018054600181600116156101000203166002900480601f016020809104026020016040519081016040528092919081815260200182805460018160011615610100020316600290048015611fb15780601f10611f8657610100808354040283529160200191611fb1565b820191906000526020600020905b815481529060010190602001808311611f9457829003601f168201915b505050505090806004015490806005018054600181600116156101000203166002900480601f0160208091040260200160405190810160405280929190818152602001828054600181600116156101000203166002900480156120555780601f1061202a57610100808354040283529160200191612055565b820191906000526020600020905b81548152906001019060200180831161203857829003601f168201915b505050505090806006018054600181600116156101000203166002900480601f0160208091040260200160405190810160405280929190818152602001828054600181600116156101000203166002900480156120f35780601f106120c8576101008083540402835291602001916120f3565b820191906000526020600020905b8154815290600101906020018083116120d657829003601f168201915b505050505090806007018054600181600116156101000203166002900480601f0160208091040260200160405190810160405280929190818152602001828054600181600116156101000203166002900480156121915780601f1061216657610100808354040283529160200191612191565b820191906000526020600020905b81548152906001019060200180831161217457829003601f168201915b5050505050908060080160009054906101000a900460ff1690806009018054600181600116156101000203166002900480601f0160208091040260200160405190810160405280929190818152602001828054600181600116156101000203166002900480156122425780601f1061221757610100808354040283529160200191612242565b820191906000526020600020905b81548152906001019060200180831161222557829003601f168201915b50505050509080600a015490508b565b60008054906101000a900473ffffffffffffffffffffffffffffffffffffffff1673ffffffffffffffffffffffffffffffffffffffff163373ffffffffffffffffffffffffffffffffffffffff16146122aa57600080fd5b60006002600083815260200190815260200160002060080160006101000a81548160ff02191690831515021790555050565b60008054906101000a900473ffffffffffffffffffffffffffffffffffffffff1673ffffffffffffffffffffffffffffffffffffffff163373ffffffffffffffffffffffffffffffffffffffff161461233457600080fd5b6001546002600060015481526020019081526020016000206000018190555087600260006001548152602001908152602001600020600101908051906020019061237f92919061267e565b508660026000600154815260200190815260200160002060020190805190602001906123ac92919061267e565b508860026000600154815260200190815260200160002060030190805190602001906123d992919061267e565b50856002600060015481526020019081526020016000206004018190555084600260006001548152602001908152602001600020600501908051906020019061242392919061267e565b5083600260006001548152602001908152602001600020600601908051906020019061245092919061267e565b5082600260006001548152602001908152602001600020600701908051906020019061247d92919061267e565b50600060026000600154815260200190815260200160002060080160006101000a81548160ff02191690831515021790555081600260006001548152602001908152602001600020600a01819055508060026000600154815260200190815260200160002060090190805190602001906124f892919061267e565b506004600154908060018154018082558091505060019003906000526020600020016000909190919091505560008054906101000a900473ffffffffffffffffffffffffffffffffffffffff1660036000600154815260200190815260200160002060000160006101000a81548173ffffffffffffffffffffffffffffffffffffffff021916908373ffffffffffffffffffffffffffffffffffffffff1602179055506040518060400160405280600681526020017f455350524954000000000000000000000000000000000000000000000000000081525060036000600154815260200190815260200160002060010190805190602001906125fc92919061267e565b50600560015490806001815401808255809150506001900390600052602060002001600090919091909150557fa5ffe0b70c36e4e7f331020155daf1dea7043ac4fbc812d30cf839b74298ef008960015460405161265b929190612dfc565b60405180910390a160018060008282540192505081905550505050505050505050565b828054600181600116156101000203166002900490600052602060002090601f0160209004810192826126b457600085556126fb565b82601f106126cd57805160ff19168380011785556126fb565b828001600101855582156126fb579182015b828111156126fa5782518255916020019190600101906126df565b5b509050612708919061270c565b5090565b5b8082111561272557600081600090555060010161270d565b5090565b600061273c61273784612f87565b612f56565b90508281526020810184848401111561275457600080fd5b61275f848285613070565b509392505050565b600082601f83011261277857600080fd5b8135612788848260208601612729565b91505092915050565b6000813590506127a0816130c5565b92915050565b6000602082840312156127b857600080fd5b600082013567ffffffffffffffff8111156127d257600080fd5b6127de84828501612767565b91505092915050565b60008060008060008060008060006101208a8c03121561280657600080fd5b60008a013567ffffffffffffffff81111561282057600080fd5b61282c8c828d01612767565b99505060208a013567ffffffffffffffff81111561284957600080fd5b6128558c828d01612767565b98505060408a013567ffffffffffffffff81111561287257600080fd5b61287e8c828d01612767565b975050606061288f8c828d01612791565b96505060808a013567ffffffffffffffff8111156128ac57600080fd5b6128b88c828d01612767565b95505060a08a013567ffffffffffffffff8111156128d557600080fd5b6128e18c828d01612767565b94505060c08a013567ffffffffffffffff8111156128fe57600080fd5b61290a8c828d01612767565b93505060e061291b8c828d01612791565b9250506101008a013567ffffffffffffffff81111561293957600080fd5b6129458c828d01612767565b9150509295985092959850929598565b60006020828403121561296757600080fd5b600061297584828501612791565b91505092915050565b6000806000806000806000806000806101408b8d03121561299e57600080fd5b60006129ac8d828e01612791565b9a505060208b013567ffffffffffffffff8111156129c957600080fd5b6129d58d828e01612767565b99505060408b013567ffffffffffffffff8111156129f257600080fd5b6129fe8d828e01612767565b98505060608b013567ffffffffffffffff811115612a1b57600080fd5b612a278d828e01612767565b9750506080612a388d828e01612791565b96505060a08b013567ffffffffffffffff811115612a5557600080fd5b612a618d828e01612767565b95505060c08b013567ffffffffffffffff811115612a7e57600080fd5b612a8a8d828e01612767565b94505060e08b013567ffffffffffffffff811115612aa757600080fd5b612ab38d828e01612767565b935050610100612ac58d828e01612791565b9250506101208b013567ffffffffffffffff811115612ae357600080fd5b612aef8d828e01612767565b9150509295989b9194979a5092959850565b6000612b0d8383612ba8565b905092915050565b612b1e81613028565b82525050565b6000612b2f82612fc7565b612b398185612fea565b935083602082028501612b4b85612fb7565b8060005b85811015612b875784840389528151612b688582612b01565b9450612b7383612fdd565b925060208a01995050600181019050612b4f565b50829750879550505050505092915050565b612ba28161303a565b82525050565b6000612bb382612fd2565b612bbd8185612ffb565b9350612bcd81856020860161307f565b612bd6816130b4565b840191505092915050565b6000612bec82612fd2565b612bf6818561300c565b9350612c0681856020860161307f565b612c0f816130b4565b840191505092915050565b6000612c2582612fd2565b612c2f818561301d565b9350612c3f81856020860161307f565b80840191505092915050565b6000612c5860068361300c565b91507f45535052495400000000000000000000000000000000000000000000000000006000830152602082019050919050565b612c9481613066565b82525050565b6000612ca68284612c1a565b915081905092915050565b6000608082019050612cc66000830187612b15565b8181036020830152612cd88186612be1565b9050612ce76040830185612c8b565b8181036060830152612cf98184612be1565b905095945050505050565b60006020820190508181036000830152612d1e8184612b24565b905092915050565b6000602082019050612d3b6000830184612b99565b92915050565b60006020820190508181036000830152612d5b8184612be1565b905092915050565b600060e0820190508181036000830152612d7d818a612be1565b90508181036020830152612d918189612be1565b90508181036040830152612da58188612be1565b9050612db46060830187612c8b565b8181036080830152612dc68186612be1565b905081810360a0830152612dda8185612be1565b905081810360c0830152612dee8184612be1565b905098975050505050505050565b60006060820190508181036000830152612e168185612be1565b90508181036020830152612e2981612c4b565b9050612e386040830184612c8b565b9392505050565b60006020820190508181036000830152612e5881612c4b565b9050919050565b6000602082019050612e746000830184612c8b565b92915050565b600061016082019050612e90600083018e612c8b565b8181036020830152612ea2818d612be1565b90508181036040830152612eb6818c612be1565b90508181036060830152612eca818b612be1565b9050612ed9608083018a612c8b565b81810360a0830152612eeb8189612be1565b905081810360c0830152612eff8188612be1565b905081810360e0830152612f138187612be1565b9050612f23610100830186612b99565b818103610120830152612f368185612be1565b9050612f46610140830184612c8b565b9c9b505050505050505050505050565b6000604051905081810181811067ffffffffffffffff82111715612f7d57612f7c6130b2565b5b8060405250919050565b600067ffffffffffffffff821115612fa257612fa16130b2565b5b601f19601f8301169050602081019050919050565b6000819050602082019050919050565b600081519050919050565b600081519050919050565b6000602082019050919050565b600082825260208201905092915050565b600082825260208201905092915050565b600082825260208201905092915050565b600081905092915050565b600061303382613046565b9050919050565b60008115159050919050565b600073ffffffffffffffffffffffffffffffffffffffff82169050919050565b6000819050919050565b82818337600083830152505050565b60005b8381101561309d578082015181840152602081019050613082565b838111156130ac576000848401525b50505050565bfe5b6000601f19601f8301169050919050565b6130ce81613066565b81146130d957600080fd5b5056fea2646970667358221220df2483ff55bfefcfa3a05095c65cf7023f9cf4a53faf6d985db9034d64d40d7864736f6c63430007060033",
  "immutableReferences": {},
  "source": "//SPDX-License-Identifier: UNLICENSED\r\npragma solidity ^0.7.4;\r\npragma experimental ABIEncoderV2;\r\ncontract Certificate{\r\n\r\n    address owner;\r\n    uint256 numCertificateIssued;\r\n\r\n          constructor() {\r\n         owner = msg.sender;\r\n        numCertificateIssued=0;\r\n    }\r\n\r\n    modifier onlyOwner{\r\n        require(msg.sender == owner);\r\n        _;\r\n    }\r\n\r\n    struct IssuerData{\r\n        address issuerAddress; //\r\n         string issuerName;//\r\n         uint256 dateRealisation;//\r\n        string numCertificat;//\r\n    }\r\n\r\n    struct CertificateBody{\r\n        uint256 id;\r\n        string Specialite;//\r\n        string Session;//\r\n        string Nom;//\r\n        uint256 dateNaissance;//\r\n        string lieuNaissance;//\r\n        string identifiant;//\r\n        string Nationalite;//\r\n        bool isDeleted;\r\n        string numCertificat;//\r\n        uint256 dateRealisation;//\r\n    }\r\n\r\n\r\n    mapping(uint256 => CertificateBody) public Certificates;\r\n    mapping(uint256 => IssuerData) public Issuers;\r\n\r\n    uint256[] public certs;\r\n    uint256[] public iss;\r\n\r\n    event Issued(\r\n        string etudiant,\r\n        string certifier,\r\n        uint256 id\r\n    );\r\n\r\n    function issueCertificate(\r\n    string memory _etudiant,\r\n    string memory _specialite,\r\n    string memory _session,\r\n    uint256 _dateNaissance,\r\n    string memory _lieuNaissance,\r\n    string memory _identifiant,\r\n    string memory _nationalite,\r\n    uint256 _dateRealisation,\r\n    string memory _numCertificat) onlyOwner public{\r\n        \r\n        Certificates[numCertificateIssued].id = numCertificateIssued;\r\n        Certificates[numCertificateIssued].Specialite = _specialite;\r\n        Certificates[numCertificateIssued].Session = _session;\r\n        Certificates[numCertificateIssued].Nom = _etudiant;\r\n        Certificates[numCertificateIssued].dateNaissance=_dateNaissance;\r\n        Certificates[numCertificateIssued].lieuNaissance=_lieuNaissance;\r\n        Certificates[numCertificateIssued].identifiant=_identifiant;\r\n        Certificates[numCertificateIssued].Nationalite=_nationalite;\r\n        Certificates[numCertificateIssued].isDeleted=false;\r\n        \r\n        Certificates[numCertificateIssued].dateRealisation=_dateRealisation;\r\n            Certificates[numCertificateIssued].numCertificat=_numCertificat;\r\n        \r\n        certs.push(numCertificateIssued);\r\n\r\n            Issuers[numCertificateIssued].issuerAddress=owner;\r\n            Issuers[numCertificateIssued].issuerName=\"ESPRIT\";\r\n            //Issuers[numCertificateIssued].dateRealisation=_dateRealisation;\r\n            //Issuers[numCertificateIssued].numCertificat=_numCertificat;\r\n             iss.push(numCertificateIssued);\r\n\r\n        emit Issued(_etudiant,\"ESPRIT\",numCertificateIssued);\r\n\r\n        numCertificateIssued +=1;\r\n\r\n    }\r\n    \r\n    function updateCertificate(uint256 _id,\r\n    string memory _etudiant,\r\n    string memory _specialite,\r\n    string memory _session,\r\n    uint256 _dateNaissance,\r\n    string memory _lieuNaissance,\r\n    string memory _identifiant,\r\n    string memory _nationalite,\r\n    uint256 _dateRealisation,\r\n    string memory _numCertificat) public{\r\n        \r\n        Certificates[_id].Specialite = _specialite;\r\n        Certificates[_id].Session = _session;\r\n        Certificates[_id].Nom = _etudiant;\r\n        Certificates[_id].dateNaissance=_dateNaissance;\r\n        Certificates[_id].lieuNaissance=_lieuNaissance;\r\n        Certificates[_id].identifiant=_identifiant;\r\n        Certificates[_id].Nationalite=_nationalite;\r\n        \r\n\r\n            //Issuers[_id].issuerAddress=owner;\r\n            //Issuers[_id].issuerName=\"ESPRIT\";\r\n            Issuers[_id].dateRealisation=_dateRealisation;\r\n            Issuers[_id].numCertificat=_numCertificat;\r\n             \r\n        \r\n    }\r\n    \r\n    function deleteCertificate(uint256 _id) onlyOwner public\r\n    {\r\n        Certificates[_id].isDeleted=true;\r\n    }\r\n    \r\n    function activateCertificate(uint256 _id) onlyOwner public\r\n    {\r\n        Certificates[_id].isDeleted=false;\r\n    }\r\n\r\n    function getCertificate(uint256 _id)view public returns(string memory,string memory,string memory,uint256,string memory,string memory,string memory){\r\n        CertificateBody memory c = Certificates[_id];\r\n        return(c.Specialite,c.Session,c.Nom,c.dateNaissance,c.lieuNaissance,c.identifiant,c.Nationalite);\r\n    }\r\n\r\n    function getIssuer(uint256 _id) view public returns(address,string memory,uint256,string memory){\r\n        IssuerData memory i = Issuers[_id];\r\n        return(i.issuerAddress,i.issuerName,i.dateRealisation,i.numCertificat);\r\n    }\r\n\r\n/*,string[] memory _specialite ,string[] memory _session ,uint256[] memory _dateNaissance,string[] memory _lieuNaissance\r\n    \r\n    ,string[] memory _identif,string[] memory _nationalite*/\r\n    \r\n    function getCertificates(string memory _identifiant)view public returns(string[] memory )\r\n    {\r\n        string[] memory _etudiant = new string[](certs.length);\r\n        \r\n        \r\n        for(uint256 i=0;i<certs.length;i++)\r\n        {\r\n            CertificateBody memory c = Certificates[i];\r\n            if(keccak256(abi.encodePacked((c.identifiant))) == keccak256(abi.encodePacked((_identifiant))))\r\n            {\r\n                _etudiant[i] = c.Nom;\r\n                //_specialite[i] = c.Specialite;\r\n                //_session[i] = c.Session;\r\n                //_dateNaissance[i] = c.dateNaissance;\r\n                //_lieuNaissance[i] = c.lieuNaissance;\r\n                //_identif[i] = c.identifiant;\r\n                //_nationalite[i] = c.Nationalite;\r\n            }\r\n        }\r\n        \r\n        return(_etudiant);\r\n        //,_specialite,_session,_dateNaissance,_lieuNaissance,_identif,_nationalite\r\n        \r\n    }\r\n\r\n    function verifyCertificate(\r\n    string memory _etudiant,\r\n    string memory _specialite,\r\n    string memory _session,\r\n    uint256 _dateNaissance,\r\n    string memory _lieuNaissance,\r\n    string memory _identifiant,\r\n    string memory _nationalite,\r\n    uint256 _dateRealisation,\r\n    string memory _numCertificat)public view returns(bool) {\r\n        CertificateBody memory diplome = Certificates[numCertificateIssued];\r\n        IssuerData memory issuer = Issuers[numCertificateIssued];\r\n        if(keccak256(abi.encode(issuer.issuerName)) == keccak256(abi.encode(\"ESPRIT\")) &&\r\n            keccak256(abi.encode(diplome.Specialite)) == keccak256(abi.encode(_specialite)) &&\r\n            keccak256(abi.encode(diplome.Session)) == keccak256(abi.encode(_session)) &&\r\n            keccak256(abi.encode(diplome.Nom)) == keccak256(abi.encode(_etudiant)) &&\r\n            keccak256(abi.encode(diplome.dateNaissance)) == keccak256(abi.encode(_dateNaissance)) &&\r\n            keccak256(abi.encode(diplome.lieuNaissance)) == keccak256(abi.encode(_lieuNaissance)) &&\r\n            keccak256(abi.encode(diplome.identifiant)) == keccak256(abi.encode(_identifiant)) &&\r\n            keccak256(abi.encode(diplome.Nationalite)) == keccak256(abi.encode(_nationalite)) &&\r\n            keccak256(abi.encode(issuer.dateRealisation)) == keccak256(abi.encode(_dateRealisation)) &&\r\n            keccak256(abi.encode(issuer.numCertificat)) == keccak256(abi.encode(_numCertificat)) ){\r\n\r\n               return true;\r\n\r\n            }else\r\n            {\r\n                return false;\r\n            }\r\n\r\n\r\n    }\r\n\r\n\r\n    function totalCertificates() view public returns(uint256){\r\n        return numCertificateIssued;\r\n    }\r\n\r\n}\r\n\r\n\r\n",
  "sourcePath": "C:/Users/Omar/Desktop/PIM/contracts/Certificate.sol",
  "compiler": {
    "name": "solc",
    "version": "0.7.6+commit.7338295f.Emscripten.clang"
  },
  "schemaVersion": "3.3.1",
  "updatedAt": "2021-03-30T03:30:37.240Z",
  "networkType": "ethereum",
  "devdoc": {
    "kind": "dev",
    "methods": {},
    "version": 1
  },
  "userdoc": {
    "kind": "user",
    "methods": {},
    "version": 1
  }
}