{
  "contractName": "Certificate",
  "abi": [
    {
      "inputs": [],
      "stateMutability": "nonpayable",
      "type": "constructor"
    },
    {
      "anonymous": false,
      "inputs": [
        {
          "indexed": false,
          "internalType": "string",
          "name": "etudiant",
          "type": "string"
        },
        {
          "indexed": false,
          "internalType": "string",
          "name": "certifier",
          "type": "string"
        },
        {
          "indexed": false,
          "internalType": "uint256",
          "name": "id",
          "type": "uint256"
        }
      ],
      "name": "Issued",
      "type": "event"
    },
    {
      "inputs": [
        {
          "internalType": "uint256",
          "name": "",
          "type": "uint256"
        }
      ],
      "name": "Certificates",
      "outputs": [
        {
          "internalType": "uint256",
          "name": "id",
          "type": "uint256"
        },
        {
          "internalType": "string",
          "name": "Specialite",
          "type": "string"
        },
        {
          "internalType": "string",
          "name": "Session",
          "type": "string"
        },
        {
          "internalType": "string",
          "name": "Nom",
          "type": "string"
        },
        {
          "internalType": "uint256",
          "name": "dateNaissance",
          "type": "uint256"
        },
        {
          "internalType": "string",
          "name": "lieuNaissance",
          "type": "string"
        },
        {
          "internalType": "string",
          "name": "identifiant",
          "type": "string"
        },
        {
          "internalType": "string",
          "name": "Nationalite",
          "type": "string"
        },
        {
          "internalType": "string",
          "name": "numCertificat",
          "type": "string"
        },
        {
          "internalType": "uint256",
          "name": "dateRealisation",
          "type": "uint256"
        }
      ],
      "stateMutability": "view",
      "type": "function",
      "constant": true
    },
    {
      "inputs": [
        {
          "internalType": "uint256",
          "name": "",
          "type": "uint256"
        }
      ],
      "name": "Issuers",
      "outputs": [
        {
          "internalType": "address",
          "name": "issuerAddress",
          "type": "address"
        },
        {
          "internalType": "string",
          "name": "issuerName",
          "type": "string"
        },
        {
          "internalType": "uint256",
          "name": "dateRealisation",
          "type": "uint256"
        },
        {
          "internalType": "string",
          "name": "numCertificat",
          "type": "string"
        }
      ],
      "stateMutability": "view",
      "type": "function",
      "constant": true
    },
    {
      "inputs": [
        {
          "internalType": "uint256",
          "name": "",
          "type": "uint256"
        }
      ],
      "name": "certs",
      "outputs": [
        {
          "internalType": "uint256",
          "name": "",
          "type": "uint256"
        }
      ],
      "stateMutability": "view",
      "type": "function",
      "constant": true
    },
    {
      "inputs": [
        {
          "internalType": "uint256",
          "name": "",
          "type": "uint256"
        }
      ],
      "name": "iss",
      "outputs": [
        {
          "internalType": "uint256",
          "name": "",
          "type": "uint256"
        }
      ],
      "stateMutability": "view",
      "type": "function",
      "constant": true
    },
    {
      "inputs": [
        {
          "internalType": "string",
          "name": "_etudiant",
          "type": "string"
        },
        {
          "internalType": "string",
          "name": "_specialite",
          "type": "string"
        },
        {
          "internalType": "string",
          "name": "_session",
          "type": "string"
        },
        {
          "internalType": "uint256",
          "name": "_dateNaissance",
          "type": "uint256"
        },
        {
          "internalType": "string",
          "name": "_lieuNaissance",
          "type": "string"
        },
        {
          "internalType": "string",
          "name": "_identifiant",
          "type": "string"
        },
        {
          "internalType": "string",
          "name": "_nationalite",
          "type": "string"
        },
        {
          "internalType": "uint256",
          "name": "_dateRealisation",
          "type": "uint256"
        },
        {
          "internalType": "string",
          "name": "_numCertificat",
          "type": "string"
        }
      ],
      "name": "issueCertificate",
      "outputs": [],
      "stateMutability": "nonpayable",
      "type": "function"
    },
    {
      "inputs": [
        {
          "internalType": "uint256",
          "name": "_id",
          "type": "uint256"
        },
        {
          "internalType": "string",
          "name": "_etudiant",
          "type": "string"
        },
        {
          "internalType": "string",
          "name": "_specialite",
          "type": "string"
        },
        {
          "internalType": "string",
          "name": "_session",
          "type": "string"
        },
        {
          "internalType": "uint256",
          "name": "_dateNaissance",
          "type": "uint256"
        },
        {
          "internalType": "string",
          "name": "_lieuNaissance",
          "type": "string"
        },
        {
          "internalType": "string",
          "name": "_identifiant",
          "type": "string"
        },
        {
          "internalType": "string",
          "name": "_nationalite",
          "type": "string"
        },
        {
          "internalType": "uint256",
          "name": "_dateRealisation",
          "type": "uint256"
        },
        {
          "internalType": "string",
          "name": "_numCertificat",
          "type": "string"
        }
      ],
      "name": "updateCertificate",
      "outputs": [],
      "stateMutability": "nonpayable",
      "type": "function"
    },
    {
      "inputs": [
        {
          "internalType": "uint256",
          "name": "_id",
          "type": "uint256"
        }
      ],
      "name": "deleteCertificate",
      "outputs": [],
      "stateMutability": "nonpayable",
      "type": "function"
    },
    {
      "inputs": [
        {
          "internalType": "uint256",
          "name": "_id",
          "type": "uint256"
        }
      ],
      "name": "getCertificate",
      "outputs": [
        {
          "internalType": "string",
          "name": "",
          "type": "string"
        },
        {
          "internalType": "string",
          "name": "",
          "type": "string"
        },
        {
          "internalType": "string",
          "name": "",
          "type": "string"
        },
        {
          "internalType": "uint256",
          "name": "",
          "type": "uint256"
        },
        {
          "internalType": "string",
          "name": "",
          "type": "string"
        },
        {
          "internalType": "string",
          "name": "",
          "type": "string"
        },
        {
          "internalType": "string",
          "name": "",
          "type": "string"
        }
      ],
      "stateMutability": "view",
      "type": "function",
      "constant": true
    },
    {
      "inputs": [
        {
          "internalType": "uint256",
          "name": "_id",
          "type": "uint256"
        }
      ],
      "name": "getIssuer",
      "outputs": [
        {
          "internalType": "address",
          "name": "",
          "type": "address"
        },
        {
          "internalType": "string",
          "name": "",
          "type": "string"
        },
        {
          "internalType": "uint256",
          "name": "",
          "type": "uint256"
        },
        {
          "internalType": "string",
          "name": "",
          "type": "string"
        }
      ],
      "stateMutability": "view",
      "type": "function",
      "constant": true
    },
    {
      "inputs": [
        {
          "internalType": "string",
          "name": "_identifiant",
          "type": "string"
        }
      ],
      "name": "getCertificates",
      "outputs": [
        {
          "internalType": "string[]",
          "name": "",
          "type": "string[]"
        }
      ],
      "stateMutability": "view",
      "type": "function",
      "constant": true
    },
    {
      "inputs": [
        {
          "internalType": "string",
          "name": "_etudiant",
          "type": "string"
        },
        {
          "internalType": "string",
          "name": "_specialite",
          "type": "string"
        },
        {
          "internalType": "string",
          "name": "_session",
          "type": "string"
        },
        {
          "internalType": "uint256",
          "name": "_dateNaissance",
          "type": "uint256"
        },
        {
          "internalType": "string",
          "name": "_lieuNaissance",
          "type": "string"
        },
        {
          "internalType": "string",
          "name": "_identifiant",
          "type": "string"
        },
        {
          "internalType": "string",
          "name": "_nationalite",
          "type": "string"
        },
        {
          "internalType": "uint256",
          "name": "_dateRealisation",
          "type": "uint256"
        },
        {
          "internalType": "string",
          "name": "_numCertificat",
          "type": "string"
        }
      ],
      "name": "verifyCertificate",
      "outputs": [
        {
          "internalType": "bool",
          "name": "",
          "type": "bool"
        }
      ],
      "stateMutability": "view",
      "type": "function",
      "constant": true
    },
    {
      "inputs": [],
      "name": "totalCertificates",
      "outputs": [
        {
          "internalType": "uint256",
          "name": "",
          "type": "uint256"
        }
      ],
      "stateMutability": "view",
      "type": "function",
      "constant": true
    }
  ],
  "bytecode": "0x608060405234801561001057600080fd5b50336000806101000a81548173ffffffffffffffffffffffffffffffffffffffff021916908373ffffffffffffffffffffffffffffffffffffffff1602179055506000600181905550613741806100686000396000f3fe608060405234801561001057600080fd5b50600436106100b45760003560e01c80636a6dc088116100715780636a6dc088146101d05780637c4733de14610200578063883eeb6e1461021c57806392089c46146102385780639622c8361461026b578063f872c8f1146102a4576100b4565b806302e19bce146100b95780631df23fb8146100e957806351640fee14610119578063596b772f1461014f578063646750d61461016d57806369c843751461019d575b600080fd5b6100d360048036038101906100ce9190612de9565b6102c0565b6040516100e0919061335a565b60405180910390f35b61010360048036038101906100fe9190612f57565b610ce2565b6040516101109190613493565b60405180910390f35b610133600480360381019061012e9190612f57565b610d06565b6040516101469796959493929190613397565b60405180910390f35b6101576111fe565b6040516101649190613493565b60405180910390f35b61018760048036038101906101829190612f57565b611208565b6040516101949190613493565b60405180910390f35b6101b760048036038101906101b29190612f57565b61122c565b6040516101c794939291906132e5565b60405180910390f35b6101ea60048036038101906101e59190612da8565b6113ac565b6040516101f79190613338565b60405180910390f35b61021a60048036038101906102159190612f80565b61194f565b005b61023660048036038101906102319190612f57565b611abe565b005b610252600480360381019061024d9190612f57565b6121c4565b60405161026294939291906132e5565b60405180910390f35b61028560048036038101906102809190612f57565b6123b6565b60405161029b9a999897969594939291906134ae565b60405180910390f35b6102be60048036038101906102b99190612de9565b612832565b005b6000806002600060015481526020019081526020016000206040518061014001604052908160008201548152602001600182018054600181600116156101000203166002900480601f0160208091040260200160405190810160405280929190818152602001828054600181600116156101000203166002900480156103875780601f1061035c57610100808354040283529160200191610387565b820191906000526020600020905b81548152906001019060200180831161036a57829003601f168201915b50505050508152602001600282018054600181600116156101000203166002900480601f0160208091040260200160405190810160405280929190818152602001828054600181600116156101000203166002900480156104295780601f106103fe57610100808354040283529160200191610429565b820191906000526020600020905b81548152906001019060200180831161040c57829003601f168201915b50505050508152602001600382018054600181600116156101000203166002900480601f0160208091040260200160405190810160405280929190818152602001828054600181600116156101000203166002900480156104cb5780601f106104a0576101008083540402835291602001916104cb565b820191906000526020600020905b8154815290600101906020018083116104ae57829003601f168201915b5050505050815260200160048201548152602001600582018054600181600116156101000203166002900480601f0160208091040260200160405190810160405280929190818152602001828054600181600116156101000203166002900480156105775780601f1061054c57610100808354040283529160200191610577565b820191906000526020600020905b81548152906001019060200180831161055a57829003601f168201915b50505050508152602001600682018054600181600116156101000203166002900480601f0160208091040260200160405190810160405280929190818152602001828054600181600116156101000203166002900480156106195780601f106105ee57610100808354040283529160200191610619565b820191906000526020600020905b8154815290600101906020018083116105fc57829003601f168201915b50505050508152602001600782018054600181600116156101000203166002900480601f0160208091040260200160405190810160405280929190818152602001828054600181600116156101000203166002900480156106bb5780601f10610690576101008083540402835291602001916106bb565b820191906000526020600020905b81548152906001019060200180831161069e57829003601f168201915b50505050508152602001600882018054600181600116156101000203166002900480601f01602080910402602001604051908101604052809291908181526020018280546001816001161561010002031660029004801561075d5780601f106107325761010080835404028352916020019161075d565b820191906000526020600020905b81548152906001019060200180831161074057829003601f168201915b50505050508152602001600982015481525050905060006003600060015481526020019081526020016000206040518060800160405290816000820160009054906101000a900473ffffffffffffffffffffffffffffffffffffffff1673ffffffffffffffffffffffffffffffffffffffff1673ffffffffffffffffffffffffffffffffffffffff168152602001600182018054600181600116156101000203166002900480601f0160208091040260200160405190810160405280929190818152602001828054600181600116156101000203166002900480156108835780601f1061085857610100808354040283529160200191610883565b820191906000526020600020905b81548152906001019060200180831161086657829003601f168201915b5050505050815260200160028201548152602001600382018054600181600116156101000203166002900480601f01602080910402602001604051908101604052809291908181526020018280546001816001161561010002031660029004801561092f5780601f106109045761010080835404028352916020019161092f565b820191906000526020600020905b81548152906001019060200180831161091257829003601f168201915b505050505081525050905060405160200161094990613473565b6040516020818303038152906040528051906020012081602001516040516020016109749190613375565b604051602081830303815290604052805190602001201480156109e657508a6040516020016109a39190613375565b6040516020818303038152906040528051906020012082602001516040516020016109ce9190613375565b60405160208183030381529060405280519060200120145b8015610a415750896040516020016109fe9190613375565b604051602081830303815290604052805190602001208260400151604051602001610a299190613375565b60405160208183030381529060405280519060200120145b8015610a9c57508b604051602001610a599190613375565b604051602081830303815290604052805190602001208260600151604051602001610a849190613375565b60405160208183030381529060405280519060200120145b8015610af7575088604051602001610ab49190613493565b604051602081830303815290604052805190602001208260800151604051602001610adf9190613493565b60405160208183030381529060405280519060200120145b8015610b52575087604051602001610b0f9190613375565b604051602081830303815290604052805190602001208260a00151604051602001610b3a9190613375565b60405160208183030381529060405280519060200120145b8015610bad575086604051602001610b6a9190613375565b604051602081830303815290604052805190602001208260c00151604051602001610b959190613375565b60405160208183030381529060405280519060200120145b8015610c08575085604051602001610bc59190613375565b604051602081830303815290604052805190602001208260e00151604051602001610bf09190613375565b60405160208183030381529060405280519060200120145b8015610c63575084604051602001610c209190613493565b604051602081830303815290604052805190602001208160400151604051602001610c4b9190613493565b60405160208183030381529060405280519060200120145b8015610cbe575083604051602001610c7b9190613375565b604051602081830303815290604052805190602001208160600151604051602001610ca69190613375565b60405160208183030381529060405280519060200120145b15610cce57600192505050610cd5565b6000925050505b9998505050505050505050565b60058181548110610cf257600080fd5b906000526020600020016000915090505481565b6060806060600060608060606000600260008a81526020019081526020016000206040518061014001604052908160008201548152602001600182018054600181600116156101000203166002900480601f016020809104026020016040519081016040528092919081815260200182805460018160011615610100020316600290048015610dd65780601f10610dab57610100808354040283529160200191610dd6565b820191906000526020600020905b815481529060010190602001808311610db957829003601f168201915b50505050508152602001600282018054600181600116156101000203166002900480601f016020809104026020016040519081016040528092919081815260200182805460018160011615610100020316600290048015610e785780601f10610e4d57610100808354040283529160200191610e78565b820191906000526020600020905b815481529060010190602001808311610e5b57829003601f168201915b50505050508152602001600382018054600181600116156101000203166002900480601f016020809104026020016040519081016040528092919081815260200182805460018160011615610100020316600290048015610f1a5780601f10610eef57610100808354040283529160200191610f1a565b820191906000526020600020905b815481529060010190602001808311610efd57829003601f168201915b5050505050815260200160048201548152602001600582018054600181600116156101000203166002900480601f016020809104026020016040519081016040528092919081815260200182805460018160011615610100020316600290048015610fc65780601f10610f9b57610100808354040283529160200191610fc6565b820191906000526020600020905b815481529060010190602001808311610fa957829003601f168201915b50505050508152602001600682018054600181600116156101000203166002900480601f0160208091040260200160405190810160405280929190818152602001828054600181600116156101000203166002900480156110685780601f1061103d57610100808354040283529160200191611068565b820191906000526020600020905b81548152906001019060200180831161104b57829003601f168201915b50505050508152602001600782018054600181600116156101000203166002900480601f01602080910402602001604051908101604052809291908181526020018280546001816001161561010002031660029004801561110a5780601f106110df5761010080835404028352916020019161110a565b820191906000526020600020905b8154815290600101906020018083116110ed57829003601f168201915b50505050508152602001600882018054600181600116156101000203166002900480601f0160208091040260200160405190810160405280929190818152602001828054600181600116156101000203166002900480156111ac5780601f10611181576101008083540402835291602001916111ac565b820191906000526020600020905b81548152906001019060200180831161118f57829003601f168201915b50505050508152602001600982015481525050905080602001518160400151826060015183608001518460a001518560c001518660e00151975097509750975097509750975050919395979092949650565b6000600154905090565b6004818154811061121857600080fd5b906000526020600020016000915090505481565b60036020528060005260406000206000915090508060000160009054906101000a900473ffffffffffffffffffffffffffffffffffffffff1690806001018054600181600116156101000203166002900480601f0160208091040260200160405190810160405280929190818152602001828054600181600116156101000203166002900480156112fe5780601f106112d3576101008083540402835291602001916112fe565b820191906000526020600020905b8154815290600101906020018083116112e157829003601f168201915b505050505090806002015490806003018054600181600116156101000203166002900480601f0160208091040260200160405190810160405280929190818152602001828054600181600116156101000203166002900480156113a25780601f10611377576101008083540402835291602001916113a2565b820191906000526020600020905b81548152906001019060200180831161138557829003601f168201915b5050505050905084565b6060600060048054905067ffffffffffffffff811180156113cc57600080fd5b5060405190808252806020026020018201604052801561140057816020015b60608152602001906001900390816113eb5790505b50905060005b600480549050811015611945576000600260008381526020019081526020016000206040518061014001604052908160008201548152602001600182018054600181600116156101000203166002900480601f0160208091040260200160405190810160405280929190818152602001828054600181600116156101000203166002900480156114d75780601f106114ac576101008083540402835291602001916114d7565b820191906000526020600020905b8154815290600101906020018083116114ba57829003601f168201915b50505050508152602001600282018054600181600116156101000203166002900480601f0160208091040260200160405190810160405280929190818152602001828054600181600116156101000203166002900480156115795780601f1061154e57610100808354040283529160200191611579565b820191906000526020600020905b81548152906001019060200180831161155c57829003601f168201915b50505050508152602001600382018054600181600116156101000203166002900480601f01602080910402602001604051908101604052809291908181526020018280546001816001161561010002031660029004801561161b5780601f106115f05761010080835404028352916020019161161b565b820191906000526020600020905b8154815290600101906020018083116115fe57829003601f168201915b5050505050815260200160048201548152602001600582018054600181600116156101000203166002900480601f0160208091040260200160405190810160405280929190818152602001828054600181600116156101000203166002900480156116c75780601f1061169c576101008083540402835291602001916116c7565b820191906000526020600020905b8154815290600101906020018083116116aa57829003601f168201915b50505050508152602001600682018054600181600116156101000203166002900480601f0160208091040260200160405190810160405280929190818152602001828054600181600116156101000203166002900480156117695780601f1061173e57610100808354040283529160200191611769565b820191906000526020600020905b81548152906001019060200180831161174c57829003601f168201915b50505050508152602001600782018054600181600116156101000203166002900480601f01602080910402602001604051908101604052809291908181526020018280546001816001161561010002031660029004801561180b5780601f106117e05761010080835404028352916020019161180b565b820191906000526020600020905b8154815290600101906020018083116117ee57829003601f168201915b50505050508152602001600882018054600181600116156101000203166002900480601f0160208091040260200160405190810160405280929190818152602001828054600181600116156101000203166002900480156118ad5780601f10611882576101008083540402835291602001916118ad565b820191906000526020600020905b81548152906001019060200180831161189057829003601f168201915b505050505081526020016009820154815250509050846040516020016118d391906132b3565b604051602081830303815290604052805190602001208160c001516040516020016118fe91906132b3565b60405160208183030381529060405280519060200120141561193757806060015183838151811061192b57fe5b60200260200101819052505b508080600101915050611406565b5080915050919050565b87600260008c81526020019081526020016000206001019080519060200190611979929190612ba3565b5086600260008c815260200190815260200160002060020190805190602001906119a4929190612ba3565b5088600260008c815260200190815260200160002060030190805190602001906119cf929190612ba3565b5085600260008c81526020019081526020016000206004018190555084600260008c81526020019081526020016000206005019080519060200190611a15929190612ba3565b5083600260008c81526020019081526020016000206006019080519060200190611a40929190612ba3565b5082600260008c81526020019081526020016000206007019080519060200190611a6b929190612ba3565b5081600360008c81526020019081526020016000206002018190555080600360008c81526020019081526020016000206003019080519060200190611ab1929190612ba3565b5050505050505050505050565b60008054906101000a900473ffffffffffffffffffffffffffffffffffffffff1673ffffffffffffffffffffffffffffffffffffffff163373ffffffffffffffffffffffffffffffffffffffff1614611b1657600080fd5b60026000828152602001908152602001600020600080820160009055600182016000611b429190612c31565b600282016000611b529190612c31565b600382016000611b629190612c31565b6004820160009055600582016000611b7a9190612c31565b600682016000611b8a9190612c31565b600782016000611b9a9190612c31565b600882016000611baa9190612c31565b6009820160009055505060048181548110611bc157fe5b906000526020600020016000905560058181548110611bdc57fe5b9060005260206000200160009055600480549050604051602001611c0091906132ca565b6040516020818303038152906040528051906020012081604051602001611c2791906132ca565b604051602081830303815290604052805190602001201415611c5457600180600082825403925050819055505b6000801b81604051602001611c6991906132ca565b604051602081830303815290604052805190602001201415611f2457600180600082825403925050819055506000600190505b6004805490508111611f225760018103600260008381526020019081526020016000206000018190555060026000600183038152602001908152602001600020600260008381526020019081526020016000206000820154816000015560018201816001019080546001816001161561010002031660029004611d20929190612c79565b5060028201816002019080546001816001161561010002031660029004611d48929190612c79565b5060038201816003019080546001816001161561010002031660029004611d70929190612c79565b506004820154816004015560058201816005019080546001816001161561010002031660029004611da2929190612c79565b5060068201816006019080546001816001161561010002031660029004611dca929190612c79565b5060078201816007019080546001816001161561010002031660029004611df2929190612c79565b5060088201816008019080546001816001161561010002031660029004611e1a929190612c79565b506009820154816009015590505060036000600183038152602001908152602001600020600360008381526020019081526020016000206000820160009054906101000a900473ffffffffffffffffffffffffffffffffffffffff168160000160006101000a81548173ffffffffffffffffffffffffffffffffffffffff021916908373ffffffffffffffffffffffffffffffffffffffff16021790555060018201816001019080546001816001161561010002031660029004611edf929190612c79565b506002820154816002015560038201816003019080546001816001161561010002031660029004611f11929190612c79565b509050508080600101915050611c9c565b505b6001806000828254039250508190555060008190505b60048054905081116121c05760018103600260008381526020019081526020016000206000018190555060026000600183038152602001908152602001600020600260008381526020019081526020016000206000820154816000015560018201816001019080546001816001161561010002031660029004611fbe929190612c79565b5060028201816002019080546001816001161561010002031660029004611fe6929190612c79565b506003820181600301908054600181600116156101000203166002900461200e929190612c79565b506004820154816004015560058201816005019080546001816001161561010002031660029004612040929190612c79565b5060068201816006019080546001816001161561010002031660029004612068929190612c79565b5060078201816007019080546001816001161561010002031660029004612090929190612c79565b50600882018160080190805460018160011615610100020316600290046120b8929190612c79565b506009820154816009015590505060036000600183038152602001908152602001600020600360008381526020019081526020016000206000820160009054906101000a900473ffffffffffffffffffffffffffffffffffffffff168160000160006101000a81548173ffffffffffffffffffffffffffffffffffffffff021916908373ffffffffffffffffffffffffffffffffffffffff1602179055506001820181600101908054600181600116156101000203166002900461217d929190612c79565b5060028201548160020155600382018160030190805460018160011615610100020316600290046121af929190612c79565b509050508080600101915050611f3a565b5050565b60006060600060606000600360008781526020019081526020016000206040518060800160405290816000820160009054906101000a900473ffffffffffffffffffffffffffffffffffffffff1673ffffffffffffffffffffffffffffffffffffffff1673ffffffffffffffffffffffffffffffffffffffff168152602001600182018054600181600116156101000203166002900480601f0160208091040260200160405190810160405280929190818152602001828054600181600116156101000203166002900480156122db5780601f106122b0576101008083540402835291602001916122db565b820191906000526020600020905b8154815290600101906020018083116122be57829003601f168201915b5050505050815260200160028201548152602001600382018054600181600116156101000203166002900480601f0160208091040260200160405190810160405280929190818152602001828054600181600116156101000203166002900480156123875780601f1061235c57610100808354040283529160200191612387565b820191906000526020600020905b81548152906001019060200180831161236a57829003601f168201915b505050505081525050905080600001518160200151826040015183606001519450945094509450509193509193565b6002602052806000526040600020600091509050806000015490806001018054600181600116156101000203166002900480601f0160208091040260200160405190810160405280929190818152602001828054600181600116156101000203166002900480156124685780601f1061243d57610100808354040283529160200191612468565b820191906000526020600020905b81548152906001019060200180831161244b57829003601f168201915b505050505090806002018054600181600116156101000203166002900480601f0160208091040260200160405190810160405280929190818152602001828054600181600116156101000203166002900480156125065780601f106124db57610100808354040283529160200191612506565b820191906000526020600020905b8154815290600101906020018083116124e957829003601f168201915b505050505090806003018054600181600116156101000203166002900480601f0160208091040260200160405190810160405280929190818152602001828054600181600116156101000203166002900480156125a45780601f10612579576101008083540402835291602001916125a4565b820191906000526020600020905b81548152906001019060200180831161258757829003601f168201915b505050505090806004015490806005018054600181600116156101000203166002900480601f0160208091040260200160405190810160405280929190818152602001828054600181600116156101000203166002900480156126485780601f1061261d57610100808354040283529160200191612648565b820191906000526020600020905b81548152906001019060200180831161262b57829003601f168201915b505050505090806006018054600181600116156101000203166002900480601f0160208091040260200160405190810160405280929190818152602001828054600181600116156101000203166002900480156126e65780601f106126bb576101008083540402835291602001916126e6565b820191906000526020600020905b8154815290600101906020018083116126c957829003601f168201915b505050505090806007018054600181600116156101000203166002900480601f0160208091040260200160405190810160405280929190818152602001828054600181600116156101000203166002900480156127845780601f1061275957610100808354040283529160200191612784565b820191906000526020600020905b81548152906001019060200180831161276757829003601f168201915b505050505090806008018054600181600116156101000203166002900480601f0160208091040260200160405190810160405280929190818152602001828054600181600116156101000203166002900480156128225780601f106127f757610100808354040283529160200191612822565b820191906000526020600020905b81548152906001019060200180831161280557829003601f168201915b505050505090806009015490508a565b60008054906101000a900473ffffffffffffffffffffffffffffffffffffffff1673ffffffffffffffffffffffffffffffffffffffff163373ffffffffffffffffffffffffffffffffffffffff161461288a57600080fd5b600154600260006001548152602001908152602001600020600001819055508760026000600154815260200190815260200160002060010190805190602001906128d5929190612ba3565b50866002600060015481526020019081526020016000206002019080519060200190612902929190612ba3565b5088600260006001548152602001908152602001600020600301908051906020019061292f929190612ba3565b508560026000600154815260200190815260200160002060040181905550846002600060015481526020019081526020016000206005019080519060200190612979929190612ba3565b508360026000600154815260200190815260200160002060060190805190602001906129a6929190612ba3565b508260026000600154815260200190815260200160002060070190805190602001906129d3929190612ba3565b508160026000600154815260200190815260200160002060090181905550806002600060015481526020019081526020016000206008019080519060200190612a1d929190612ba3565b506004600154908060018154018082558091505060019003906000526020600020016000909190919091505560008054906101000a900473ffffffffffffffffffffffffffffffffffffffff1660036000600154815260200190815260200160002060000160006101000a81548173ffffffffffffffffffffffffffffffffffffffff021916908373ffffffffffffffffffffffffffffffffffffffff1602179055506040518060400160405280600681526020017f45535052495400000000000000000000000000000000000000000000000000008152506003600060015481526020019081526020016000206001019080519060200190612b21929190612ba3565b50600560015490806001815401808255809150506001900390600052602060002001600090919091909150557fa5ffe0b70c36e4e7f331020155daf1dea7043ac4fbc812d30cf839b74298ef0089600154604051612b80929190613430565b60405180910390a160018060008282540192505081905550505050505050505050565b828054600181600116156101000203166002900490600052602060002090601f016020900481019282612bd95760008555612c20565b82601f10612bf257805160ff1916838001178555612c20565b82800160010185558215612c20579182015b82811115612c1f578251825591602001919060010190612c04565b5b509050612c2d9190612d0e565b5090565b50805460018160011615610100020316600290046000825580601f10612c575750612c76565b601f016020900490600052602060002090810190612c759190612d0e565b5b50565b828054600181600116156101000203166002900490600052602060002090601f016020900481019282612caf5760008555612cfd565b82601f10612cc05780548555612cfd565b82800160010185558215612cfd57600052602060002091601f016020900482015b82811115612cfc578254825591600101919060010190612ce1565b5b509050612d0a9190612d0e565b5090565b5b80821115612d27576000816000905550600101612d0f565b5090565b6000612d3e612d39846135ac565b61357b565b905082815260208101848484011115612d5657600080fd5b612d61848285613695565b509392505050565b600082601f830112612d7a57600080fd5b8135612d8a848260208601612d2b565b91505092915050565b600081359050612da2816136f4565b92915050565b600060208284031215612dba57600080fd5b600082013567ffffffffffffffff811115612dd457600080fd5b612de084828501612d69565b91505092915050565b60008060008060008060008060006101208a8c031215612e0857600080fd5b60008a013567ffffffffffffffff811115612e2257600080fd5b612e2e8c828d01612d69565b99505060208a013567ffffffffffffffff811115612e4b57600080fd5b612e578c828d01612d69565b98505060408a013567ffffffffffffffff811115612e7457600080fd5b612e808c828d01612d69565b9750506060612e918c828d01612d93565b96505060808a013567ffffffffffffffff811115612eae57600080fd5b612eba8c828d01612d69565b95505060a08a013567ffffffffffffffff811115612ed757600080fd5b612ee38c828d01612d69565b94505060c08a013567ffffffffffffffff811115612f0057600080fd5b612f0c8c828d01612d69565b93505060e0612f1d8c828d01612d93565b9250506101008a013567ffffffffffffffff811115612f3b57600080fd5b612f478c828d01612d69565b9150509295985092959850929598565b600060208284031215612f6957600080fd5b6000612f7784828501612d93565b91505092915050565b6000806000806000806000806000806101408b8d031215612fa057600080fd5b6000612fae8d828e01612d93565b9a505060208b013567ffffffffffffffff811115612fcb57600080fd5b612fd78d828e01612d69565b99505060408b013567ffffffffffffffff811115612ff457600080fd5b6130008d828e01612d69565b98505060608b013567ffffffffffffffff81111561301d57600080fd5b6130298d828e01612d69565b975050608061303a8d828e01612d93565b96505060a08b013567ffffffffffffffff81111561305757600080fd5b6130638d828e01612d69565b95505060c08b013567ffffffffffffffff81111561308057600080fd5b61308c8d828e01612d69565b94505060e08b013567ffffffffffffffff8111156130a957600080fd5b6130b58d828e01612d69565b9350506101006130c78d828e01612d93565b9250506101208b013567ffffffffffffffff8111156130e557600080fd5b6130f18d828e01612d69565b9150509295989b9194979a5092959850565b600061310f83836131aa565b905092915050565b6131208161364d565b82525050565b6000613131826135ec565b61313b818561360f565b93508360208202850161314d856135dc565b8060005b85811015613189578484038952815161316a8582613103565b945061317583613602565b925060208a01995050600181019050613151565b50829750879550505050505092915050565b6131a48161365f565b82525050565b60006131b5826135f7565b6131bf8185613620565b93506131cf8185602086016136a4565b6131d8816136e3565b840191505092915050565b60006131ee826135f7565b6131f88185613631565b93506132088185602086016136a4565b613211816136e3565b840191505092915050565b6000613227826135f7565b6132318185613642565b93506132418185602086016136a4565b80840191505092915050565b600061325a600683613631565b91507f45535052495400000000000000000000000000000000000000000000000000006000830152602082019050919050565b6132968161368b565b82525050565b6132ad6132a88261368b565b6136d7565b82525050565b60006132bf828461321c565b915081905092915050565b60006132d6828461329c565b60208201915081905092915050565b60006080820190506132fa6000830187613117565b818103602083015261330c81866131e3565b905061331b604083018561328d565b818103606083015261332d81846131e3565b905095945050505050565b600060208201905081810360008301526133528184613126565b905092915050565b600060208201905061336f600083018461319b565b92915050565b6000602082019050818103600083015261338f81846131e3565b905092915050565b600060e08201905081810360008301526133b1818a6131e3565b905081810360208301526133c581896131e3565b905081810360408301526133d981886131e3565b90506133e8606083018761328d565b81810360808301526133fa81866131e3565b905081810360a083015261340e81856131e3565b905081810360c083015261342281846131e3565b905098975050505050505050565b6000606082019050818103600083015261344a81856131e3565b9050818103602083015261345d8161324d565b905061346c604083018461328d565b9392505050565b6000602082019050818103600083015261348c8161324d565b9050919050565b60006020820190506134a8600083018461328d565b92915050565b6000610140820190506134c4600083018d61328d565b81810360208301526134d6818c6131e3565b905081810360408301526134ea818b6131e3565b905081810360608301526134fe818a6131e3565b905061350d608083018961328d565b81810360a083015261351f81886131e3565b905081810360c083015261353381876131e3565b905081810360e083015261354781866131e3565b905081810361010083015261355c81856131e3565b905061356c61012083018461328d565b9b9a5050505050505050505050565b6000604051905081810181811067ffffffffffffffff821117156135a2576135a16136e1565b5b8060405250919050565b600067ffffffffffffffff8211156135c7576135c66136e1565b5b601f19601f8301169050602081019050919050565b6000819050602082019050919050565b600081519050919050565b600081519050919050565b6000602082019050919050565b600082825260208201905092915050565b600082825260208201905092915050565b600082825260208201905092915050565b600081905092915050565b60006136588261366b565b9050919050565b60008115159050919050565b600073ffffffffffffffffffffffffffffffffffffffff82169050919050565b6000819050919050565b82818337600083830152505050565b60005b838110156136c25780820151818401526020810190506136a7565b838111156136d1576000848401525b50505050565b6000819050919050565bfe5b6000601f19601f8301169050919050565b6136fd8161368b565b811461370857600080fd5b5056fea26469706673582212206ce71298da86853e33bf2636310a445e926fd9e5a8695d574fb3b65080336a2c64736f6c63430007060033",
  "immutableReferences": {},
  "source": "//SPDX-License-Identifier: UNLICENSED\r\npragma solidity ^0.7.4;\r\npragma experimental ABIEncoderV2;\r\ncontract Certificate{\r\n\r\n    address owner;\r\n    uint256 numCertificateIssued;\r\n\r\n          constructor() {\r\n         owner = msg.sender;\r\n        numCertificateIssued=0;\r\n    }\r\n\r\n    modifier onlyOwner{\r\n        require(msg.sender == owner);\r\n        _;\r\n    }\r\n\r\n    struct IssuerData{\r\n        address issuerAddress; //\r\n         string issuerName;//\r\n         uint256 dateRealisation;//\r\n        string numCertificat;//\r\n    }\r\n\r\n    struct CertificateBody{\r\n        uint256 id;\r\n        string Specialite;//\r\n        string Session;//\r\n        string Nom;//\r\n        uint256 dateNaissance;//\r\n        string lieuNaissance;//\r\n        string identifiant;//\r\n        string Nationalite;//\r\n        \r\n        string numCertificat;//\r\n        uint256 dateRealisation;//\r\n    }\r\n\r\n\r\n    mapping(uint256 => CertificateBody) public Certificates;\r\n    mapping(uint256 => IssuerData) public Issuers;\r\n\r\n    uint256[] public certs;\r\n    uint256[] public iss;\r\n\r\n    event Issued(\r\n        string etudiant,\r\n        string certifier,\r\n        uint256 id\r\n    );\r\n\r\n    function issueCertificate(\r\n    string memory _etudiant,\r\n    string memory _specialite,\r\n    string memory _session,\r\n    uint256 _dateNaissance,\r\n    string memory _lieuNaissance,\r\n    string memory _identifiant,\r\n    string memory _nationalite,\r\n    uint256 _dateRealisation,\r\n    string memory _numCertificat) onlyOwner public{\r\n        \r\n        Certificates[numCertificateIssued].id = numCertificateIssued;\r\n        Certificates[numCertificateIssued].Specialite = _specialite;\r\n        Certificates[numCertificateIssued].Session = _session;\r\n        Certificates[numCertificateIssued].Nom = _etudiant;\r\n        Certificates[numCertificateIssued].dateNaissance=_dateNaissance;\r\n        Certificates[numCertificateIssued].lieuNaissance=_lieuNaissance;\r\n        Certificates[numCertificateIssued].identifiant=_identifiant;\r\n        Certificates[numCertificateIssued].Nationalite=_nationalite;\r\n        \r\n        Certificates[numCertificateIssued].dateRealisation=_dateRealisation;\r\n            Certificates[numCertificateIssued].numCertificat=_numCertificat;\r\n        \r\n        certs.push(numCertificateIssued);\r\n\r\n            Issuers[numCertificateIssued].issuerAddress=owner;\r\n            Issuers[numCertificateIssued].issuerName=\"ESPRIT\";\r\n            //Issuers[numCertificateIssued].dateRealisation=_dateRealisation;\r\n            //Issuers[numCertificateIssued].numCertificat=_numCertificat;\r\n             iss.push(numCertificateIssued);\r\n\r\n        emit Issued(_etudiant,\"ESPRIT\",numCertificateIssued);\r\n\r\n        numCertificateIssued +=1;\r\n\r\n    }\r\n    \r\n    function updateCertificate(uint256 _id,\r\n    string memory _etudiant,\r\n    string memory _specialite,\r\n    string memory _session,\r\n    uint256 _dateNaissance,\r\n    string memory _lieuNaissance,\r\n    string memory _identifiant,\r\n    string memory _nationalite,\r\n    uint256 _dateRealisation,\r\n    string memory _numCertificat) public{\r\n        \r\n        Certificates[_id].Specialite = _specialite;\r\n        Certificates[_id].Session = _session;\r\n        Certificates[_id].Nom = _etudiant;\r\n        Certificates[_id].dateNaissance=_dateNaissance;\r\n        Certificates[_id].lieuNaissance=_lieuNaissance;\r\n        Certificates[_id].identifiant=_identifiant;\r\n        Certificates[_id].Nationalite=_nationalite;\r\n        \r\n\r\n            //Issuers[_id].issuerAddress=owner;\r\n            //Issuers[_id].issuerName=\"ESPRIT\";\r\n            Issuers[_id].dateRealisation=_dateRealisation;\r\n            Issuers[_id].numCertificat=_numCertificat;\r\n             \r\n        \r\n    }\r\n    // 0 1 2 3 \r\n    function deleteCertificate(uint256 _id) onlyOwner public\r\n    {\r\n        delete Certificates[_id];\r\n        delete certs[_id];\r\n        delete iss[_id];\r\n        \r\n        if(keccak256(abi.encodePacked((_id))) == keccak256(abi.encodePacked((certs.length))))\r\n        {\r\n            numCertificateIssued-=1;\r\n            \r\n        }\r\n         if(keccak256(abi.encodePacked((_id))) == 0)\r\n        {\r\n            numCertificateIssued-=1;\r\n            for(uint256 index=1;index<=certs.length;index++)\r\n            {\r\n                Certificates[index].id=index-1;\r\n                Certificates[index]=Certificates[index-1];\r\n                \r\n                Issuers[index]=Issuers[index-1];\r\n            }\r\n        }\r\n        \r\n        numCertificateIssued-=1;\r\n            for(uint256 index=_id;index<=certs.length;index++)\r\n            {\r\n                Certificates[index].id=index-1;\r\n                Certificates[index]=Certificates[index-1];\r\n                Issuers[index]=Issuers[index-1];\r\n            }\r\n        \r\n    }\r\n\r\n    function getCertificate(uint256 _id)view public returns(string memory,string memory,string memory,uint256,string memory,string memory,string memory){\r\n        CertificateBody memory c = Certificates[_id];\r\n        return(c.Specialite,c.Session,c.Nom,c.dateNaissance,c.lieuNaissance,c.identifiant,c.Nationalite);\r\n    }\r\n\r\n    function getIssuer(uint256 _id) view public returns(address,string memory,uint256,string memory){\r\n        IssuerData memory i = Issuers[_id];\r\n        return(i.issuerAddress,i.issuerName,i.dateRealisation,i.numCertificat);\r\n    }\r\n\r\n/*,string[] memory _specialite ,string[] memory _session ,uint256[] memory _dateNaissance,string[] memory _lieuNaissance\r\n    \r\n    ,string[] memory _identif,string[] memory _nationalite*/\r\n    \r\n    function getCertificates(string memory _identifiant)view public returns(string[] memory )\r\n    {\r\n        string[] memory _etudiant = new string[](certs.length);\r\n        \r\n        \r\n        for(uint256 i=0;i<certs.length;i++)\r\n        {\r\n            CertificateBody memory c = Certificates[i];\r\n            if(keccak256(abi.encodePacked((c.identifiant))) == keccak256(abi.encodePacked((_identifiant))))\r\n            {\r\n                _etudiant[i] = c.Nom;\r\n                //_specialite[i] = c.Specialite;\r\n                //_session[i] = c.Session;\r\n                //_dateNaissance[i] = c.dateNaissance;\r\n                //_lieuNaissance[i] = c.lieuNaissance;\r\n                //_identif[i] = c.identifiant;\r\n                //_nationalite[i] = c.Nationalite;\r\n            }\r\n        }\r\n        \r\n        return(_etudiant);\r\n        //,_specialite,_session,_dateNaissance,_lieuNaissance,_identif,_nationalite\r\n        \r\n    }\r\n\r\n    function verifyCertificate(\r\n    string memory _etudiant,\r\n    string memory _specialite,\r\n    string memory _session,\r\n    uint256 _dateNaissance,\r\n    string memory _lieuNaissance,\r\n    string memory _identifiant,\r\n    string memory _nationalite,\r\n    uint256 _dateRealisation,\r\n    string memory _numCertificat)public view returns(bool) {\r\n        CertificateBody memory diplome = Certificates[numCertificateIssued];\r\n        IssuerData memory issuer = Issuers[numCertificateIssued];\r\n        if(keccak256(abi.encode(issuer.issuerName)) == keccak256(abi.encode(\"ESPRIT\")) &&\r\n            keccak256(abi.encode(diplome.Specialite)) == keccak256(abi.encode(_specialite)) &&\r\n            keccak256(abi.encode(diplome.Session)) == keccak256(abi.encode(_session)) &&\r\n            keccak256(abi.encode(diplome.Nom)) == keccak256(abi.encode(_etudiant)) &&\r\n            keccak256(abi.encode(diplome.dateNaissance)) == keccak256(abi.encode(_dateNaissance)) &&\r\n            keccak256(abi.encode(diplome.lieuNaissance)) == keccak256(abi.encode(_lieuNaissance)) &&\r\n            keccak256(abi.encode(diplome.identifiant)) == keccak256(abi.encode(_identifiant)) &&\r\n            keccak256(abi.encode(diplome.Nationalite)) == keccak256(abi.encode(_nationalite)) &&\r\n            keccak256(abi.encode(issuer.dateRealisation)) == keccak256(abi.encode(_dateRealisation)) &&\r\n            keccak256(abi.encode(issuer.numCertificat)) == keccak256(abi.encode(_numCertificat)) ){\r\n\r\n               return true;\r\n\r\n            }else\r\n            {\r\n                return false;\r\n            }\r\n\r\n\r\n    }\r\n\r\n\r\n    function totalCertificates() view public returns(uint256){\r\n        return numCertificateIssued;\r\n    }\r\n\r\n}\r\n\r\n\r\n",
  "sourcePath": "C:/Users/Omar/Desktop/PIM/contracts/Certificate.sol",
  "compiler": {
    "name": "solc",
    "version": "0.7.6+commit.7338295f.Emscripten.clang"
  },
  "schemaVersion": "3.3.1",
  "updatedAt": "2021-03-10T02:56:34.608Z",
  "networkType": "ethereum",
  "devdoc": {
    "kind": "dev",
    "methods": {},
    "version": 1
  },
  "userdoc": {
    "kind": "user",
    "methods": {},
    "version": 1
  }
}