{
  "contractName": "Certificate",
  "abi": [
    {
      "inputs": [],
      "stateMutability": "nonpayable",
      "type": "constructor"
    },
    {
      "anonymous": false,
      "inputs": [
        {
          "indexed": false,
          "internalType": "string",
          "name": "etudiant",
          "type": "string"
        },
        {
          "indexed": false,
          "internalType": "string",
          "name": "certifier",
          "type": "string"
        },
        {
          "indexed": false,
          "internalType": "uint256",
          "name": "id",
          "type": "uint256"
        }
      ],
      "name": "Issued",
      "type": "event"
    },
    {
      "inputs": [
        {
          "internalType": "uint256",
          "name": "",
          "type": "uint256"
        }
      ],
      "name": "Certificates",
      "outputs": [
        {
          "internalType": "string",
          "name": "Specialite",
          "type": "string"
        },
        {
          "internalType": "string",
          "name": "Session",
          "type": "string"
        },
        {
          "internalType": "string",
          "name": "Nom",
          "type": "string"
        },
        {
          "internalType": "uint256",
          "name": "dateNaissance",
          "type": "uint256"
        },
        {
          "internalType": "string",
          "name": "lieuNaissance",
          "type": "string"
        },
        {
          "internalType": "string",
          "name": "identifiant",
          "type": "string"
        },
        {
          "internalType": "string",
          "name": "Nationalite",
          "type": "string"
        }
      ],
      "stateMutability": "view",
      "type": "function"
    },
    {
      "inputs": [
        {
          "internalType": "uint256",
          "name": "",
          "type": "uint256"
        }
      ],
      "name": "Issuers",
      "outputs": [
        {
          "internalType": "address",
          "name": "issuerAddress",
          "type": "address"
        },
        {
          "internalType": "string",
          "name": "issuerName",
          "type": "string"
        },
        {
          "internalType": "uint256",
          "name": "dateRealisation",
          "type": "uint256"
        },
        {
          "internalType": "string",
          "name": "numCertificat",
          "type": "string"
        }
      ],
      "stateMutability": "view",
      "type": "function"
    },
    {
      "inputs": [
        {
          "internalType": "uint256",
          "name": "",
          "type": "uint256"
        }
      ],
      "name": "certs",
      "outputs": [
        {
          "internalType": "uint256",
          "name": "",
          "type": "uint256"
        }
      ],
      "stateMutability": "view",
      "type": "function"
    },
    {
      "inputs": [
        {
          "internalType": "uint256",
          "name": "",
          "type": "uint256"
        }
      ],
      "name": "iss",
      "outputs": [
        {
          "internalType": "uint256",
          "name": "",
          "type": "uint256"
        }
      ],
      "stateMutability": "view",
      "type": "function"
    },
    {
      "inputs": [
        {
          "internalType": "string",
          "name": "_etudiant",
          "type": "string"
        },
        {
          "internalType": "string",
          "name": "_specialite",
          "type": "string"
        },
        {
          "internalType": "string",
          "name": "_session",
          "type": "string"
        },
        {
          "internalType": "uint256",
          "name": "_dateNaissance",
          "type": "uint256"
        },
        {
          "internalType": "string",
          "name": "_lieuNaissance",
          "type": "string"
        },
        {
          "internalType": "string",
          "name": "_identifiant",
          "type": "string"
        },
        {
          "internalType": "string",
          "name": "_nationalite",
          "type": "string"
        },
        {
          "internalType": "uint256",
          "name": "_dateRealisation",
          "type": "uint256"
        },
        {
          "internalType": "string",
          "name": "_numCertificat",
          "type": "string"
        }
      ],
      "name": "issueCertificate",
      "outputs": [],
      "stateMutability": "nonpayable",
      "type": "function"
    },
    {
      "inputs": [
        {
          "internalType": "uint256",
          "name": "_id",
          "type": "uint256"
        }
      ],
      "name": "getCertificate",
      "outputs": [
        {
          "internalType": "string",
          "name": "",
          "type": "string"
        },
        {
          "internalType": "string",
          "name": "",
          "type": "string"
        },
        {
          "internalType": "string",
          "name": "",
          "type": "string"
        },
        {
          "internalType": "uint256",
          "name": "",
          "type": "uint256"
        },
        {
          "internalType": "string",
          "name": "",
          "type": "string"
        },
        {
          "internalType": "string",
          "name": "",
          "type": "string"
        },
        {
          "internalType": "string",
          "name": "",
          "type": "string"
        }
      ],
      "stateMutability": "view",
      "type": "function"
    },
    {
      "inputs": [
        {
          "internalType": "uint256",
          "name": "_id",
          "type": "uint256"
        }
      ],
      "name": "getIssuer",
      "outputs": [
        {
          "internalType": "address",
          "name": "",
          "type": "address"
        },
        {
          "internalType": "string",
          "name": "",
          "type": "string"
        },
        {
          "internalType": "uint256",
          "name": "",
          "type": "uint256"
        },
        {
          "internalType": "string",
          "name": "",
          "type": "string"
        }
      ],
      "stateMutability": "view",
      "type": "function"
    },
    {
      "inputs": [
        {
          "internalType": "string",
          "name": "_identifiant",
          "type": "string"
        }
      ],
      "name": "getCertificates",
      "outputs": [
        {
          "internalType": "string[]",
          "name": "",
          "type": "string[]"
        }
      ],
      "stateMutability": "view",
      "type": "function"
    },
    {
      "inputs": [
        {
          "internalType": "string",
          "name": "_etudiant",
          "type": "string"
        },
        {
          "internalType": "string",
          "name": "_specialite",
          "type": "string"
        },
        {
          "internalType": "string",
          "name": "_session",
          "type": "string"
        },
        {
          "internalType": "uint256",
          "name": "_dateNaissance",
          "type": "uint256"
        },
        {
          "internalType": "string",
          "name": "_lieuNaissance",
          "type": "string"
        },
        {
          "internalType": "string",
          "name": "_identifiant",
          "type": "string"
        },
        {
          "internalType": "string",
          "name": "_nationalite",
          "type": "string"
        },
        {
          "internalType": "uint256",
          "name": "_dateRealisation",
          "type": "uint256"
        },
        {
          "internalType": "string",
          "name": "_numCertificat",
          "type": "string"
        }
      ],
      "name": "verifyCertificate",
      "outputs": [
        {
          "internalType": "bool",
          "name": "",
          "type": "bool"
        }
      ],
      "stateMutability": "view",
      "type": "function"
    },
    {
      "inputs": [],
      "name": "totalCertificates",
      "outputs": [
        {
          "internalType": "uint256",
          "name": "",
          "type": "uint256"
        }
      ],
      "stateMutability": "view",
      "type": "function"
    }
  ],
  "bytecode": "0x608060405234801561001057600080fd5b50336000806101000a81548173ffffffffffffffffffffffffffffffffffffffff021916908373ffffffffffffffffffffffffffffffffffffffff1602179055506000600181905550612824806100686000396000f3fe608060405234801561001057600080fd5b506004361061009e5760003560e01c806369c843751161006657806369c84375146101875780636a6dc088146101ba57806392089c46146101ea5780639622c8361461021d578063f872c8f1146102535761009e565b806302e19bce146100a35780631df23fb8146100d357806351640fee14610103578063596b772f14610139578063646750d614610157575b600080fd5b6100bd60048036038101906100b89190612158565b61026f565b6040516100ca9190612514565b60405180910390f35b6100ed60048036038101906100e891906122c6565b610bda565b6040516100fa919061264d565b60405180910390f35b61011d600480360381019061011891906122c6565b610bfe565b6040516101309796959493929190612551565b60405180910390f35b61014161103f565b60405161014e919061264d565b60405180910390f35b610171600480360381019061016c91906122c6565b611049565b60405161017e919061264d565b60405180910390f35b6101a1600480360381019061019c91906122c6565b61106d565b6040516101b1949392919061249f565b60405180910390f35b6101d460048036038101906101cf9190612117565b6111ed565b6040516101e191906124f2565b60405180910390f35b61020460048036038101906101ff91906122c6565b6116d9565b604051610214949392919061249f565b60405180910390f35b610237600480360381019061023291906122c6565b6118cb565b60405161024a9796959493929190612551565b60405180910390f35b61026d60048036038101906102689190612158565b611c9d565b005b6000806002600060015481526020019081526020016000206040518060e0016040529081600082018054600181600116156101000203166002900480601f01602080910402602001604051908101604052809291908181526020018280546001816001161561010002031660029004801561032b5780601f106103005761010080835404028352916020019161032b565b820191906000526020600020905b81548152906001019060200180831161030e57829003601f168201915b50505050508152602001600182018054600181600116156101000203166002900480601f0160208091040260200160405190810160405280929190818152602001828054600181600116156101000203166002900480156103cd5780601f106103a2576101008083540402835291602001916103cd565b820191906000526020600020905b8154815290600101906020018083116103b057829003601f168201915b50505050508152602001600282018054600181600116156101000203166002900480601f01602080910402602001604051908101604052809291908181526020018280546001816001161561010002031660029004801561046f5780601f106104445761010080835404028352916020019161046f565b820191906000526020600020905b81548152906001019060200180831161045257829003601f168201915b5050505050815260200160038201548152602001600482018054600181600116156101000203166002900480601f01602080910402602001604051908101604052809291908181526020018280546001816001161561010002031660029004801561051b5780601f106104f05761010080835404028352916020019161051b565b820191906000526020600020905b8154815290600101906020018083116104fe57829003601f168201915b50505050508152602001600582018054600181600116156101000203166002900480601f0160208091040260200160405190810160405280929190818152602001828054600181600116156101000203166002900480156105bd5780601f10610592576101008083540402835291602001916105bd565b820191906000526020600020905b8154815290600101906020018083116105a057829003601f168201915b50505050508152602001600682018054600181600116156101000203166002900480601f01602080910402602001604051908101604052809291908181526020018280546001816001161561010002031660029004801561065f5780601f106106345761010080835404028352916020019161065f565b820191906000526020600020905b81548152906001019060200180831161064257829003601f168201915b505050505081525050905060006003600060015481526020019081526020016000206040518060800160405290816000820160009054906101000a900473ffffffffffffffffffffffffffffffffffffffff1673ffffffffffffffffffffffffffffffffffffffff1673ffffffffffffffffffffffffffffffffffffffff168152602001600182018054600181600116156101000203166002900480601f01602080910402602001604051908101604052809291908181526020018280546001816001161561010002031660029004801561077b5780601f106107505761010080835404028352916020019161077b565b820191906000526020600020905b81548152906001019060200180831161075e57829003601f168201915b5050505050815260200160028201548152602001600382018054600181600116156101000203166002900480601f0160208091040260200160405190810160405280929190818152602001828054600181600116156101000203166002900480156108275780601f106107fc57610100808354040283529160200191610827565b820191906000526020600020905b81548152906001019060200180831161080a57829003601f168201915b50505050508152505090506040516020016108419061262d565b60405160208183030381529060405280519060200120816020015160405160200161086c919061252f565b604051602081830303815290604052805190602001201480156108de57508a60405160200161089b919061252f565b6040516020818303038152906040528051906020012082600001516040516020016108c6919061252f565b60405160208183030381529060405280519060200120145b80156109395750896040516020016108f6919061252f565b604051602081830303815290604052805190602001208260200151604051602001610921919061252f565b60405160208183030381529060405280519060200120145b801561099457508b604051602001610951919061252f565b60405160208183030381529060405280519060200120826040015160405160200161097c919061252f565b60405160208183030381529060405280519060200120145b80156109ef5750886040516020016109ac919061264d565b6040516020818303038152906040528051906020012082606001516040516020016109d7919061264d565b60405160208183030381529060405280519060200120145b8015610a4a575087604051602001610a07919061252f565b604051602081830303815290604052805190602001208260800151604051602001610a32919061252f565b60405160208183030381529060405280519060200120145b8015610aa5575086604051602001610a62919061252f565b604051602081830303815290604052805190602001208260a00151604051602001610a8d919061252f565b60405160208183030381529060405280519060200120145b8015610b00575085604051602001610abd919061252f565b604051602081830303815290604052805190602001208260c00151604051602001610ae8919061252f565b60405160208183030381529060405280519060200120145b8015610b5b575084604051602001610b18919061264d565b604051602081830303815290604052805190602001208160400151604051602001610b43919061264d565b60405160208183030381529060405280519060200120145b8015610bb6575083604051602001610b73919061252f565b604051602081830303815290604052805190602001208160600151604051602001610b9e919061252f565b60405160208183030381529060405280519060200120145b15610bc657600192505050610bcd565b6000925050505b9998505050505050505050565b60058181548110610bea57600080fd5b906000526020600020016000915090505481565b6060806060600060608060606000600260008a81526020019081526020016000206040518060e0016040529081600082018054600181600116156101000203166002900480601f016020809104026020016040519081016040528092919081815260200182805460018160011615610100020316600290048015610cc35780601f10610c9857610100808354040283529160200191610cc3565b820191906000526020600020905b815481529060010190602001808311610ca657829003601f168201915b50505050508152602001600182018054600181600116156101000203166002900480601f016020809104026020016040519081016040528092919081815260200182805460018160011615610100020316600290048015610d655780601f10610d3a57610100808354040283529160200191610d65565b820191906000526020600020905b815481529060010190602001808311610d4857829003601f168201915b50505050508152602001600282018054600181600116156101000203166002900480601f016020809104026020016040519081016040528092919081815260200182805460018160011615610100020316600290048015610e075780601f10610ddc57610100808354040283529160200191610e07565b820191906000526020600020905b815481529060010190602001808311610dea57829003601f168201915b5050505050815260200160038201548152602001600482018054600181600116156101000203166002900480601f016020809104026020016040519081016040528092919081815260200182805460018160011615610100020316600290048015610eb35780601f10610e8857610100808354040283529160200191610eb3565b820191906000526020600020905b815481529060010190602001808311610e9657829003601f168201915b50505050508152602001600582018054600181600116156101000203166002900480601f016020809104026020016040519081016040528092919081815260200182805460018160011615610100020316600290048015610f555780601f10610f2a57610100808354040283529160200191610f55565b820191906000526020600020905b815481529060010190602001808311610f3857829003601f168201915b50505050508152602001600682018054600181600116156101000203166002900480601f016020809104026020016040519081016040528092919081815260200182805460018160011615610100020316600290048015610ff75780601f10610fcc57610100808354040283529160200191610ff7565b820191906000526020600020905b815481529060010190602001808311610fda57829003601f168201915b5050505050815250509050806000015181602001518260400151836060015184608001518560a001518660c00151975097509750975097509750975050919395979092949650565b6000600154905090565b6004818154811061105957600080fd5b906000526020600020016000915090505481565b60036020528060005260406000206000915090508060000160009054906101000a900473ffffffffffffffffffffffffffffffffffffffff1690806001018054600181600116156101000203166002900480601f01602080910402602001604051908101604052809291908181526020018280546001816001161561010002031660029004801561113f5780601f106111145761010080835404028352916020019161113f565b820191906000526020600020905b81548152906001019060200180831161112257829003601f168201915b505050505090806002015490806003018054600181600116156101000203166002900480601f0160208091040260200160405190810160405280929190818152602001828054600181600116156101000203166002900480156111e35780601f106111b8576101008083540402835291602001916111e3565b820191906000526020600020905b8154815290600101906020018083116111c657829003601f168201915b5050505050905084565b6060600060048054905067ffffffffffffffff8111801561120d57600080fd5b5060405190808252806020026020018201604052801561124157816020015b606081526020019060019003908161122c5790505b50905060005b6004805490508110156116cf576000600260008381526020019081526020016000206040518060e0016040529081600082018054600181600116156101000203166002900480601f01602080910402602001604051908101604052809291908181526020018280546001816001161561010002031660029004801561130d5780601f106112e25761010080835404028352916020019161130d565b820191906000526020600020905b8154815290600101906020018083116112f057829003601f168201915b50505050508152602001600182018054600181600116156101000203166002900480601f0160208091040260200160405190810160405280929190818152602001828054600181600116156101000203166002900480156113af5780601f10611384576101008083540402835291602001916113af565b820191906000526020600020905b81548152906001019060200180831161139257829003601f168201915b50505050508152602001600282018054600181600116156101000203166002900480601f0160208091040260200160405190810160405280929190818152602001828054600181600116156101000203166002900480156114515780601f1061142657610100808354040283529160200191611451565b820191906000526020600020905b81548152906001019060200180831161143457829003601f168201915b5050505050815260200160038201548152602001600482018054600181600116156101000203166002900480601f0160208091040260200160405190810160405280929190818152602001828054600181600116156101000203166002900480156114fd5780601f106114d2576101008083540402835291602001916114fd565b820191906000526020600020905b8154815290600101906020018083116114e057829003601f168201915b50505050508152602001600582018054600181600116156101000203166002900480601f01602080910402602001604051908101604052809291908181526020018280546001816001161561010002031660029004801561159f5780601f106115745761010080835404028352916020019161159f565b820191906000526020600020905b81548152906001019060200180831161158257829003601f168201915b50505050508152602001600682018054600181600116156101000203166002900480601f0160208091040260200160405190810160405280929190818152602001828054600181600116156101000203166002900480156116415780601f1061161657610100808354040283529160200191611641565b820191906000526020600020905b81548152906001019060200180831161162457829003601f168201915b50505050508152505090508460405160200161165d9190612488565b604051602081830303815290604052805190602001208160a001516040516020016116889190612488565b6040516020818303038152906040528051906020012014156116c15780604001518383815181106116b557fe5b60200260200101819052505b508080600101915050611247565b5080915050919050565b60006060600060606000600360008781526020019081526020016000206040518060800160405290816000820160009054906101000a900473ffffffffffffffffffffffffffffffffffffffff1673ffffffffffffffffffffffffffffffffffffffff1673ffffffffffffffffffffffffffffffffffffffff168152602001600182018054600181600116156101000203166002900480601f0160208091040260200160405190810160405280929190818152602001828054600181600116156101000203166002900480156117f05780601f106117c5576101008083540402835291602001916117f0565b820191906000526020600020905b8154815290600101906020018083116117d357829003601f168201915b5050505050815260200160028201548152602001600382018054600181600116156101000203166002900480601f01602080910402602001604051908101604052809291908181526020018280546001816001161561010002031660029004801561189c5780601f106118715761010080835404028352916020019161189c565b820191906000526020600020905b81548152906001019060200180831161187f57829003601f168201915b505050505081525050905080600001518160200151826040015183606001519450945094509450509193509193565b6002602052806000526040600020600091509050806000018054600181600116156101000203166002900480601f0160208091040260200160405190810160405280929190818152602001828054600181600116156101000203166002900480156119775780601f1061194c57610100808354040283529160200191611977565b820191906000526020600020905b81548152906001019060200180831161195a57829003601f168201915b505050505090806001018054600181600116156101000203166002900480601f016020809104026020016040519081016040528092919081815260200182805460018160011615610100020316600290048015611a155780601f106119ea57610100808354040283529160200191611a15565b820191906000526020600020905b8154815290600101906020018083116119f857829003601f168201915b505050505090806002018054600181600116156101000203166002900480601f016020809104026020016040519081016040528092919081815260200182805460018160011615610100020316600290048015611ab35780601f10611a8857610100808354040283529160200191611ab3565b820191906000526020600020905b815481529060010190602001808311611a9657829003601f168201915b505050505090806003015490806004018054600181600116156101000203166002900480601f016020809104026020016040519081016040528092919081815260200182805460018160011615610100020316600290048015611b575780601f10611b2c57610100808354040283529160200191611b57565b820191906000526020600020905b815481529060010190602001808311611b3a57829003601f168201915b505050505090806005018054600181600116156101000203166002900480601f016020809104026020016040519081016040528092919081815260200182805460018160011615610100020316600290048015611bf55780601f10611bca57610100808354040283529160200191611bf5565b820191906000526020600020905b815481529060010190602001808311611bd857829003601f168201915b505050505090806006018054600181600116156101000203166002900480601f016020809104026020016040519081016040528092919081815260200182805460018160011615610100020316600290048015611c935780601f10611c6857610100808354040283529160200191611c93565b820191906000526020600020905b815481529060010190602001808311611c7657829003601f168201915b5050505050905087565b60008054906101000a900473ffffffffffffffffffffffffffffffffffffffff1673ffffffffffffffffffffffffffffffffffffffff163373ffffffffffffffffffffffffffffffffffffffff1614611cf557600080fd5b876002600060015481526020019081526020016000206000019080519060200190611d21929190611fef565b50866002600060015481526020019081526020016000206001019080519060200190611d4e929190611fef565b50886002600060015481526020019081526020016000206002019080519060200190611d7b929190611fef565b508560026000600154815260200190815260200160002060030181905550846002600060015481526020019081526020016000206004019080519060200190611dc5929190611fef565b50836002600060015481526020019081526020016000206005019080519060200190611df2929190611fef565b50826002600060015481526020019081526020016000206006019080519060200190611e1f929190611fef565b506004600154908060018154018082558091505060019003906000526020600020016000909190919091505560008054906101000a900473ffffffffffffffffffffffffffffffffffffffff1660036000600154815260200190815260200160002060000160006101000a81548173ffffffffffffffffffffffffffffffffffffffff021916908373ffffffffffffffffffffffffffffffffffffffff1602179055506040518060400160405280600681526020017f45535052495400000000000000000000000000000000000000000000000000008152506003600060015481526020019081526020016000206001019080519060200190611f23929190611fef565b508160036000600154815260200190815260200160002060020181905550806003600060015481526020019081526020016000206003019080519060200190611f6d929190611fef565b50600560015490806001815401808255809150506001900390600052602060002001600090919091909150557fa5ffe0b70c36e4e7f331020155daf1dea7043ac4fbc812d30cf839b74298ef0089600154604051611fcc9291906125ea565b60405180910390a160018060008282540192505081905550505050505050505050565b828054600181600116156101000203166002900490600052602060002090601f016020900481019282612025576000855561206c565b82601f1061203e57805160ff191683800117855561206c565b8280016001018555821561206c579182015b8281111561206b578251825591602001919060010190612050565b5b509050612079919061207d565b5090565b5b8082111561209657600081600090555060010161207e565b5090565b60006120ad6120a884612699565b612668565b9050828152602081018484840111156120c557600080fd5b6120d0848285612782565b509392505050565b600082601f8301126120e957600080fd5b81356120f984826020860161209a565b91505092915050565b600081359050612111816127d7565b92915050565b60006020828403121561212957600080fd5b600082013567ffffffffffffffff81111561214357600080fd5b61214f848285016120d8565b91505092915050565b60008060008060008060008060006101208a8c03121561217757600080fd5b60008a013567ffffffffffffffff81111561219157600080fd5b61219d8c828d016120d8565b99505060208a013567ffffffffffffffff8111156121ba57600080fd5b6121c68c828d016120d8565b98505060408a013567ffffffffffffffff8111156121e357600080fd5b6121ef8c828d016120d8565b97505060606122008c828d01612102565b96505060808a013567ffffffffffffffff81111561221d57600080fd5b6122298c828d016120d8565b95505060a08a013567ffffffffffffffff81111561224657600080fd5b6122528c828d016120d8565b94505060c08a013567ffffffffffffffff81111561226f57600080fd5b61227b8c828d016120d8565b93505060e061228c8c828d01612102565b9250506101008a013567ffffffffffffffff8111156122aa57600080fd5b6122b68c828d016120d8565b9150509295985092959850929598565b6000602082840312156122d857600080fd5b60006122e684828501612102565b91505092915050565b60006122fb8383612396565b905092915050565b61230c8161273a565b82525050565b600061231d826126d9565b61232781856126fc565b935083602082028501612339856126c9565b8060005b85811015612375578484038952815161235685826122ef565b9450612361836126ef565b925060208a0199505060018101905061233d565b50829750879550505050505092915050565b6123908161274c565b82525050565b60006123a1826126e4565b6123ab818561270d565b93506123bb818560208601612791565b6123c4816127c6565b840191505092915050565b60006123da826126e4565b6123e4818561271e565b93506123f4818560208601612791565b6123fd816127c6565b840191505092915050565b6000612413826126e4565b61241d818561272f565b935061242d818560208601612791565b80840191505092915050565b600061244660068361271e565b91507f45535052495400000000000000000000000000000000000000000000000000006000830152602082019050919050565b61248281612778565b82525050565b60006124948284612408565b915081905092915050565b60006080820190506124b46000830187612303565b81810360208301526124c681866123cf565b90506124d56040830185612479565b81810360608301526124e781846123cf565b905095945050505050565b6000602082019050818103600083015261250c8184612312565b905092915050565b60006020820190506125296000830184612387565b92915050565b6000602082019050818103600083015261254981846123cf565b905092915050565b600060e082019050818103600083015261256b818a6123cf565b9050818103602083015261257f81896123cf565b9050818103604083015261259381886123cf565b90506125a26060830187612479565b81810360808301526125b481866123cf565b905081810360a08301526125c881856123cf565b905081810360c08301526125dc81846123cf565b905098975050505050505050565b6000606082019050818103600083015261260481856123cf565b9050818103602083015261261781612439565b90506126266040830184612479565b9392505050565b6000602082019050818103600083015261264681612439565b9050919050565b60006020820190506126626000830184612479565b92915050565b6000604051905081810181811067ffffffffffffffff8211171561268f5761268e6127c4565b5b8060405250919050565b600067ffffffffffffffff8211156126b4576126b36127c4565b5b601f19601f8301169050602081019050919050565b6000819050602082019050919050565b600081519050919050565b600081519050919050565b6000602082019050919050565b600082825260208201905092915050565b600082825260208201905092915050565b600082825260208201905092915050565b600081905092915050565b600061274582612758565b9050919050565b60008115159050919050565b600073ffffffffffffffffffffffffffffffffffffffff82169050919050565b6000819050919050565b82818337600083830152505050565b60005b838110156127af578082015181840152602081019050612794565b838111156127be576000848401525b50505050565bfe5b6000601f19601f8301169050919050565b6127e081612778565b81146127eb57600080fd5b5056fea26469706673582212207c5fc89fddb016a5929c71cfe0abb59f3a074fcfb08e4c81214cffb8faf3327764736f6c63430007060033",
  "immutableReferences": {},
  "source": "//SPDX-License-Identifier: UNLICENSED\r\npragma solidity ^0.7.4;\r\npragma experimental ABIEncoderV2;\r\ncontract Certificate{\r\n\r\n    address owner;\r\n    uint256 numCertificateIssued;\r\n\r\n          constructor() {\r\n         owner = msg.sender;\r\n        numCertificateIssued=0;\r\n    }\r\n\r\n    modifier onlyOwner{\r\n        require(msg.sender == owner);\r\n        _;\r\n    }\r\n\r\n    struct IssuerData{\r\n        address issuerAddress; //\r\n         string issuerName;//\r\n         uint256 dateRealisation;//\r\n        string numCertificat;//\r\n    }\r\n\r\n    struct CertificateBody{\r\n\r\n        string Specialite;//\r\n        string Session;//\r\n        string Nom;//\r\n        uint256 dateNaissance;//\r\n        string lieuNaissance;//\r\n        string identifiant;//\r\n        string Nationalite;//\r\n    }\r\n\r\n\r\n    mapping(uint256 => CertificateBody) public Certificates;\r\n    mapping(uint256 => IssuerData) public Issuers;\r\n\r\n    uint256[] public certs;\r\n    uint256[] public iss;\r\n\r\n    event Issued(\r\n        string etudiant,\r\n        string certifier,\r\n        uint256 id\r\n    );\r\n\r\n    function issueCertificate(\r\n    string memory _etudiant,\r\n    string memory _specialite,\r\n    string memory _session,\r\n    uint256 _dateNaissance,\r\n    string memory _lieuNaissance,\r\n    string memory _identifiant,\r\n    string memory _nationalite,\r\n    uint256 _dateRealisation,\r\n    string memory _numCertificat) onlyOwner public{\r\n\r\n        Certificates[numCertificateIssued].Specialite = _specialite;\r\n        Certificates[numCertificateIssued].Session = _session;\r\n        Certificates[numCertificateIssued].Nom = _etudiant;\r\n        Certificates[numCertificateIssued].dateNaissance=_dateNaissance;\r\n        Certificates[numCertificateIssued].lieuNaissance=_lieuNaissance;\r\n        Certificates[numCertificateIssued].identifiant=_identifiant;\r\n        Certificates[numCertificateIssued].Nationalite=_nationalite;\r\n        certs.push(numCertificateIssued);\r\n\r\n            Issuers[numCertificateIssued].issuerAddress=owner;\r\n            Issuers[numCertificateIssued].issuerName=\"ESPRIT\";\r\n            Issuers[numCertificateIssued].dateRealisation=_dateRealisation;\r\n            Issuers[numCertificateIssued].numCertificat=_numCertificat;\r\n             iss.push(numCertificateIssued);\r\n\r\n        emit Issued(_etudiant,\"ESPRIT\",numCertificateIssued);\r\n\r\n        numCertificateIssued +=1;\r\n\r\n    }\r\n\r\n    function getCertificate(uint256 _id)view public returns(string memory,string memory,string memory,uint256,string memory,string memory,string memory){\r\n        CertificateBody memory c = Certificates[_id];\r\n        return(c.Specialite,c.Session,c.Nom,c.dateNaissance,c.lieuNaissance,c.identifiant,c.Nationalite);\r\n    }\r\n\r\n    function getIssuer(uint256 _id) view public returns(address,string memory,uint256,string memory){\r\n        IssuerData memory i = Issuers[_id];\r\n        return(i.issuerAddress,i.issuerName,i.dateRealisation,i.numCertificat);\r\n    }\r\n\r\n/*,string[] memory _specialite ,string[] memory _session ,uint256[] memory _dateNaissance,string[] memory _lieuNaissance\r\n    \r\n    ,string[] memory _identif,string[] memory _nationalite*/\r\n    \r\n    function getCertificates(string memory _identifiant)view public returns(string[] memory )\r\n    {\r\n        string[] memory _etudiant = new string[](certs.length);\r\n        \r\n        \r\n        for(uint256 i=0;i<certs.length;i++)\r\n        {\r\n            CertificateBody memory c = Certificates[i];\r\n            if(keccak256(abi.encodePacked((c.identifiant))) == keccak256(abi.encodePacked((_identifiant))))\r\n            {\r\n                _etudiant[i] = c.Nom;\r\n                //_specialite[i] = c.Specialite;\r\n                //_session[i] = c.Session;\r\n                //_dateNaissance[i] = c.dateNaissance;\r\n                //_lieuNaissance[i] = c.lieuNaissance;\r\n                //_identif[i] = c.identifiant;\r\n                //_nationalite[i] = c.Nationalite;\r\n            }\r\n        }\r\n        \r\n        return(_etudiant);\r\n        //,_specialite,_session,_dateNaissance,_lieuNaissance,_identif,_nationalite\r\n        \r\n    }\r\n\r\n    function verifyCertificate(\r\n    string memory _etudiant,\r\n    string memory _specialite,\r\n    string memory _session,\r\n    uint256 _dateNaissance,\r\n    string memory _lieuNaissance,\r\n    string memory _identifiant,\r\n    string memory _nationalite,\r\n    uint256 _dateRealisation,\r\n    string memory _numCertificat)public view returns(bool) {\r\n        CertificateBody memory diplome = Certificates[numCertificateIssued];\r\n        IssuerData memory issuer = Issuers[numCertificateIssued];\r\n        if(keccak256(abi.encode(issuer.issuerName)) == keccak256(abi.encode(\"ESPRIT\")) &&\r\n            keccak256(abi.encode(diplome.Specialite)) == keccak256(abi.encode(_specialite)) &&\r\n            keccak256(abi.encode(diplome.Session)) == keccak256(abi.encode(_session)) &&\r\n            keccak256(abi.encode(diplome.Nom)) == keccak256(abi.encode(_etudiant)) &&\r\n            keccak256(abi.encode(diplome.dateNaissance)) == keccak256(abi.encode(_dateNaissance)) &&\r\n            keccak256(abi.encode(diplome.lieuNaissance)) == keccak256(abi.encode(_lieuNaissance)) &&\r\n            keccak256(abi.encode(diplome.identifiant)) == keccak256(abi.encode(_identifiant)) &&\r\n            keccak256(abi.encode(diplome.Nationalite)) == keccak256(abi.encode(_nationalite)) &&\r\n            keccak256(abi.encode(issuer.dateRealisation)) == keccak256(abi.encode(_dateRealisation)) &&\r\n            keccak256(abi.encode(issuer.numCertificat)) == keccak256(abi.encode(_numCertificat)) ){\r\n\r\n               return true;\r\n\r\n            }else\r\n            {\r\n                return false;\r\n            }\r\n\r\n\r\n    }\r\n\r\n\r\n    function totalCertificates() view public returns(uint256){\r\n        return numCertificateIssued;\r\n    }\r\n\r\n}\r\n\r\n\r\n",
  "sourcePath": "C:/Users/Omar/Desktop/PIM/contracts/Certificate.sol",
  "compiler": {
    "name": "solc",
    "version": "0.7.6+commit.7338295f.Emscripten.clang"
  },
  "schemaVersion": "3.3.1",
  "updatedAt": "2021-03-08T19:44:44.257Z",
  "devdoc": {
    "kind": "dev",
    "methods": {},
    "version": 1
  },
  "userdoc": {
    "kind": "user",
    "methods": {},
    "version": 1
  }
}