{
  "contractName": "Certificate",
  "abi": [
    {
      "inputs": [],
      "stateMutability": "nonpayable",
      "type": "constructor"
    },
    {
      "anonymous": false,
      "inputs": [
        {
          "indexed": false,
          "internalType": "string",
          "name": "etudiant",
          "type": "string"
        },
        {
          "indexed": false,
          "internalType": "string",
          "name": "certifier",
          "type": "string"
        },
        {
          "indexed": false,
          "internalType": "uint256",
          "name": "id",
          "type": "uint256"
        }
      ],
      "name": "Issued",
      "type": "event"
    },
    {
      "inputs": [
        {
          "internalType": "uint256",
          "name": "",
          "type": "uint256"
        }
      ],
      "name": "Certificates",
      "outputs": [
        {
          "internalType": "uint256",
          "name": "id",
          "type": "uint256"
        },
        {
          "internalType": "string",
          "name": "Specialite",
          "type": "string"
        },
        {
          "internalType": "string",
          "name": "Session",
          "type": "string"
        },
        {
          "internalType": "string",
          "name": "Nom",
          "type": "string"
        },
        {
          "internalType": "uint256",
          "name": "dateNaissance",
          "type": "uint256"
        },
        {
          "internalType": "string",
          "name": "lieuNaissance",
          "type": "string"
        },
        {
          "internalType": "string",
          "name": "identifiant",
          "type": "string"
        },
        {
          "internalType": "string",
          "name": "Nationalite",
          "type": "string"
        },
        {
          "internalType": "bool",
          "name": "isDeleted",
          "type": "bool"
        },
        {
          "internalType": "string",
          "name": "numCertificat",
          "type": "string"
        },
        {
          "internalType": "uint256",
          "name": "dateRealisation",
          "type": "uint256"
        },
        {
          "internalType": "string",
          "name": "userid",
          "type": "string"
        }
      ],
      "stateMutability": "view",
      "type": "function",
      "constant": true
    },
    {
      "inputs": [
        {
          "internalType": "uint256",
          "name": "",
          "type": "uint256"
        }
      ],
      "name": "Issuers",
      "outputs": [
        {
          "internalType": "address",
          "name": "issuerAddress",
          "type": "address"
        },
        {
          "internalType": "string",
          "name": "issuerName",
          "type": "string"
        },
        {
          "internalType": "uint256",
          "name": "dateRealisation",
          "type": "uint256"
        },
        {
          "internalType": "string",
          "name": "numCertificat",
          "type": "string"
        }
      ],
      "stateMutability": "view",
      "type": "function",
      "constant": true
    },
    {
      "inputs": [
        {
          "internalType": "uint256",
          "name": "",
          "type": "uint256"
        }
      ],
      "name": "certs",
      "outputs": [
        {
          "internalType": "uint256",
          "name": "",
          "type": "uint256"
        }
      ],
      "stateMutability": "view",
      "type": "function",
      "constant": true
    },
    {
      "inputs": [
        {
          "internalType": "uint256",
          "name": "",
          "type": "uint256"
        }
      ],
      "name": "iss",
      "outputs": [
        {
          "internalType": "uint256",
          "name": "",
          "type": "uint256"
        }
      ],
      "stateMutability": "view",
      "type": "function",
      "constant": true
    },
    {
      "inputs": [
        {
          "internalType": "string",
          "name": "_etudiant",
          "type": "string"
        },
        {
          "internalType": "string",
          "name": "_specialite",
          "type": "string"
        },
        {
          "internalType": "string",
          "name": "_session",
          "type": "string"
        },
        {
          "internalType": "uint256",
          "name": "_dateNaissance",
          "type": "uint256"
        },
        {
          "internalType": "string",
          "name": "_lieuNaissance",
          "type": "string"
        },
        {
          "internalType": "string",
          "name": "_identifiant",
          "type": "string"
        },
        {
          "internalType": "string",
          "name": "_nationalite",
          "type": "string"
        },
        {
          "internalType": "uint256",
          "name": "_dateRealisation",
          "type": "uint256"
        },
        {
          "internalType": "string",
          "name": "_numCertificat",
          "type": "string"
        },
        {
          "internalType": "string",
          "name": "_userid",
          "type": "string"
        }
      ],
      "name": "issueCertificate",
      "outputs": [],
      "stateMutability": "nonpayable",
      "type": "function"
    },
    {
      "inputs": [
        {
          "internalType": "uint256",
          "name": "_id",
          "type": "uint256"
        },
        {
          "internalType": "string",
          "name": "_etudiant",
          "type": "string"
        },
        {
          "internalType": "string",
          "name": "_specialite",
          "type": "string"
        },
        {
          "internalType": "string",
          "name": "_session",
          "type": "string"
        },
        {
          "internalType": "uint256",
          "name": "_dateNaissance",
          "type": "uint256"
        },
        {
          "internalType": "string",
          "name": "_lieuNaissance",
          "type": "string"
        },
        {
          "internalType": "string",
          "name": "_identifiant",
          "type": "string"
        },
        {
          "internalType": "string",
          "name": "_nationalite",
          "type": "string"
        },
        {
          "internalType": "uint256",
          "name": "_dateRealisation",
          "type": "uint256"
        },
        {
          "internalType": "string",
          "name": "_numCertificat",
          "type": "string"
        },
        {
          "internalType": "string",
          "name": "_userid",
          "type": "string"
        }
      ],
      "name": "updateCertificate",
      "outputs": [],
      "stateMutability": "nonpayable",
      "type": "function"
    },
    {
      "inputs": [
        {
          "internalType": "uint256",
          "name": "_id",
          "type": "uint256"
        }
      ],
      "name": "deleteCertificate",
      "outputs": [],
      "stateMutability": "nonpayable",
      "type": "function"
    },
    {
      "inputs": [
        {
          "internalType": "uint256",
          "name": "_id",
          "type": "uint256"
        }
      ],
      "name": "activateCertificate",
      "outputs": [],
      "stateMutability": "nonpayable",
      "type": "function"
    },
    {
      "inputs": [
        {
          "internalType": "uint256",
          "name": "_id",
          "type": "uint256"
        }
      ],
      "name": "getCertificate",
      "outputs": [
        {
          "internalType": "string",
          "name": "",
          "type": "string"
        },
        {
          "internalType": "string",
          "name": "",
          "type": "string"
        },
        {
          "internalType": "string",
          "name": "",
          "type": "string"
        },
        {
          "internalType": "uint256",
          "name": "",
          "type": "uint256"
        },
        {
          "internalType": "string",
          "name": "",
          "type": "string"
        },
        {
          "internalType": "string",
          "name": "",
          "type": "string"
        },
        {
          "internalType": "string",
          "name": "",
          "type": "string"
        }
      ],
      "stateMutability": "view",
      "type": "function",
      "constant": true
    },
    {
      "inputs": [
        {
          "internalType": "uint256",
          "name": "_id",
          "type": "uint256"
        }
      ],
      "name": "getIssuer",
      "outputs": [
        {
          "internalType": "address",
          "name": "",
          "type": "address"
        },
        {
          "internalType": "string",
          "name": "",
          "type": "string"
        },
        {
          "internalType": "uint256",
          "name": "",
          "type": "uint256"
        },
        {
          "internalType": "string",
          "name": "",
          "type": "string"
        }
      ],
      "stateMutability": "view",
      "type": "function",
      "constant": true
    },
    {
      "inputs": [
        {
          "internalType": "string",
          "name": "_identifiant",
          "type": "string"
        }
      ],
      "name": "getCertificates",
      "outputs": [
        {
          "internalType": "string[]",
          "name": "",
          "type": "string[]"
        }
      ],
      "stateMutability": "view",
      "type": "function",
      "constant": true
    },
    {
      "inputs": [
        {
          "internalType": "string",
          "name": "_etudiant",
          "type": "string"
        },
        {
          "internalType": "string",
          "name": "_specialite",
          "type": "string"
        },
        {
          "internalType": "string",
          "name": "_session",
          "type": "string"
        },
        {
          "internalType": "uint256",
          "name": "_dateNaissance",
          "type": "uint256"
        },
        {
          "internalType": "string",
          "name": "_lieuNaissance",
          "type": "string"
        },
        {
          "internalType": "string",
          "name": "_identifiant",
          "type": "string"
        },
        {
          "internalType": "string",
          "name": "_nationalite",
          "type": "string"
        },
        {
          "internalType": "uint256",
          "name": "_dateRealisation",
          "type": "uint256"
        },
        {
          "internalType": "string",
          "name": "_numCertificat",
          "type": "string"
        }
      ],
      "name": "verifyCertificate",
      "outputs": [
        {
          "internalType": "bool",
          "name": "",
          "type": "bool"
        }
      ],
      "stateMutability": "view",
      "type": "function",
      "constant": true
    },
    {
      "inputs": [],
      "name": "totalCertificates",
      "outputs": [
        {
          "internalType": "uint256",
          "name": "",
          "type": "uint256"
        }
      ],
      "stateMutability": "view",
      "type": "function",
      "constant": true
    }
  ],
  "bytecode": "0x608060405234801561001057600080fd5b50336000806101000a81548173ffffffffffffffffffffffffffffffffffffffff021916908373ffffffffffffffffffffffffffffffffffffffff16021790555060006001819055506135cf806100686000396000f3fe608060405234801561001057600080fd5b50600436106100cf5760003560e01c80636a6dc0881161008c57806394dbebb51161006657806394dbebb51461026a5780639622c83614610286578063e304a93b146102c1578063e5ba178b146102dd576100cf565b80636a6dc088146101eb578063883eeb6e1461021b57806392089c4614610237576100cf565b806302e19bce146100d45780631df23fb81461010457806351640fee14610134578063596b772f1461016a578063646750d61461018857806369c84375146101b8575b600080fd5b6100ee60048036038101906100e99190612ac6565b6102f9565b6040516100fb91906131cd565b60405180910390f35b61011e60048036038101906101199190612dcf565b610dd8565b60405161012b9190613306565b60405180910390f35b61014e60048036038101906101499190612dcf565b610dfc565b604051610161979695949392919061320a565b60405180910390f35b6101726113b1565b60405161017f9190613306565b60405180910390f35b6101a2600480360381019061019d9190612dcf565b6113bb565b6040516101af9190613306565b60405180910390f35b6101d260048036038101906101cd9190612dcf565b6113df565b6040516101e29493929190613158565b60405180910390f35b61020560048036038101906102009190612a85565b61155f565b60405161021291906131ab565b60405180910390f35b61023560048036038101906102309190612dcf565b611bbf565b005b610251600480360381019061024c9190612dcf565b611c49565b6040516102619493929190613158565b60405180910390f35b610284600480360381019061027f9190612df8565b611e3b565b005b6102a0600480360381019061029b9190612dcf565b611fd6565b6040516102b89c9b9a99989796959493929190613321565b60405180910390f35b6102db60048036038101906102d69190612c34565b612503565b005b6102f760048036038101906102f29190612dcf565b6128d3565b005b6000806002600060015481526020019081526020016000206040518061018001604052908160008201548152602001600182018054600181600116156101000203166002900480601f0160208091040260200160405190810160405280929190818152602001828054600181600116156101000203166002900480156103c05780601f10610395576101008083540402835291602001916103c0565b820191906000526020600020905b8154815290600101906020018083116103a357829003601f168201915b50505050508152602001600282018054600181600116156101000203166002900480601f0160208091040260200160405190810160405280929190818152602001828054600181600116156101000203166002900480156104625780601f1061043757610100808354040283529160200191610462565b820191906000526020600020905b81548152906001019060200180831161044557829003601f168201915b50505050508152602001600382018054600181600116156101000203166002900480601f0160208091040260200160405190810160405280929190818152602001828054600181600116156101000203166002900480156105045780601f106104d957610100808354040283529160200191610504565b820191906000526020600020905b8154815290600101906020018083116104e757829003601f168201915b5050505050815260200160048201548152602001600582018054600181600116156101000203166002900480601f0160208091040260200160405190810160405280929190818152602001828054600181600116156101000203166002900480156105b05780601f10610585576101008083540402835291602001916105b0565b820191906000526020600020905b81548152906001019060200180831161059357829003601f168201915b50505050508152602001600682018054600181600116156101000203166002900480601f0160208091040260200160405190810160405280929190818152602001828054600181600116156101000203166002900480156106525780601f1061062757610100808354040283529160200191610652565b820191906000526020600020905b81548152906001019060200180831161063557829003601f168201915b50505050508152602001600782018054600181600116156101000203166002900480601f0160208091040260200160405190810160405280929190818152602001828054600181600116156101000203166002900480156106f45780601f106106c9576101008083540402835291602001916106f4565b820191906000526020600020905b8154815290600101906020018083116106d757829003601f168201915b505050505081526020016008820160009054906101000a900460ff16151515158152602001600982018054600181600116156101000203166002900480601f0160208091040260200160405190810160405280929190818152602001828054600181600116156101000203166002900480156107b15780601f10610786576101008083540402835291602001916107b1565b820191906000526020600020905b81548152906001019060200180831161079457829003601f168201915b50505050508152602001600a8201548152602001600b82018054600181600116156101000203166002900480601f01602080910402602001604051908101604052809291908181526020018280546001816001161561010002031660029004801561085d5780601f106108325761010080835404028352916020019161085d565b820191906000526020600020905b81548152906001019060200180831161084057829003601f168201915b505050505081525050905060006003600060015481526020019081526020016000206040518060800160405290816000820160009054906101000a900473ffffffffffffffffffffffffffffffffffffffff1673ffffffffffffffffffffffffffffffffffffffff1673ffffffffffffffffffffffffffffffffffffffff168152602001600182018054600181600116156101000203166002900480601f0160208091040260200160405190810160405280929190818152602001828054600181600116156101000203166002900480156109795780601f1061094e57610100808354040283529160200191610979565b820191906000526020600020905b81548152906001019060200180831161095c57829003601f168201915b5050505050815260200160028201548152602001600382018054600181600116156101000203166002900480601f016020809104026020016040519081016040528092919081815260200182805460018160011615610100020316600290048015610a255780601f106109fa57610100808354040283529160200191610a25565b820191906000526020600020905b815481529060010190602001808311610a0857829003601f168201915b5050505050815250509050604051602001610a3f906132e6565b604051602081830303815290604052805190602001208160200151604051602001610a6a91906131e8565b60405160208183030381529060405280519060200120148015610adc57508a604051602001610a9991906131e8565b604051602081830303815290604052805190602001208260200151604051602001610ac491906131e8565b60405160208183030381529060405280519060200120145b8015610b37575089604051602001610af491906131e8565b604051602081830303815290604052805190602001208260400151604051602001610b1f91906131e8565b60405160208183030381529060405280519060200120145b8015610b9257508b604051602001610b4f91906131e8565b604051602081830303815290604052805190602001208260600151604051602001610b7a91906131e8565b60405160208183030381529060405280519060200120145b8015610bed575088604051602001610baa9190613306565b604051602081830303815290604052805190602001208260800151604051602001610bd59190613306565b60405160208183030381529060405280519060200120145b8015610c48575087604051602001610c0591906131e8565b604051602081830303815290604052805190602001208260a00151604051602001610c3091906131e8565b60405160208183030381529060405280519060200120145b8015610ca3575086604051602001610c6091906131e8565b604051602081830303815290604052805190602001208260c00151604051602001610c8b91906131e8565b60405160208183030381529060405280519060200120145b8015610cfe575085604051602001610cbb91906131e8565b604051602081830303815290604052805190602001208260e00151604051602001610ce691906131e8565b60405160208183030381529060405280519060200120145b8015610d59575084604051602001610d169190613306565b604051602081830303815290604052805190602001208160400151604051602001610d419190613306565b60405160208183030381529060405280519060200120145b8015610db4575083604051602001610d7191906131e8565b604051602081830303815290604052805190602001208160600151604051602001610d9c91906131e8565b60405160208183030381529060405280519060200120145b15610dc457600192505050610dcb565b6000925050505b9998505050505050505050565b60058181548110610de857600080fd5b906000526020600020016000915090505481565b6060806060600060608060606000600260008a81526020019081526020016000206040518061018001604052908160008201548152602001600182018054600181600116156101000203166002900480601f016020809104026020016040519081016040528092919081815260200182805460018160011615610100020316600290048015610ecc5780601f10610ea157610100808354040283529160200191610ecc565b820191906000526020600020905b815481529060010190602001808311610eaf57829003601f168201915b50505050508152602001600282018054600181600116156101000203166002900480601f016020809104026020016040519081016040528092919081815260200182805460018160011615610100020316600290048015610f6e5780601f10610f4357610100808354040283529160200191610f6e565b820191906000526020600020905b815481529060010190602001808311610f5157829003601f168201915b50505050508152602001600382018054600181600116156101000203166002900480601f0160208091040260200160405190810160405280929190818152602001828054600181600116156101000203166002900480156110105780601f10610fe557610100808354040283529160200191611010565b820191906000526020600020905b815481529060010190602001808311610ff357829003601f168201915b5050505050815260200160048201548152602001600582018054600181600116156101000203166002900480601f0160208091040260200160405190810160405280929190818152602001828054600181600116156101000203166002900480156110bc5780601f10611091576101008083540402835291602001916110bc565b820191906000526020600020905b81548152906001019060200180831161109f57829003601f168201915b50505050508152602001600682018054600181600116156101000203166002900480601f01602080910402602001604051908101604052809291908181526020018280546001816001161561010002031660029004801561115e5780601f106111335761010080835404028352916020019161115e565b820191906000526020600020905b81548152906001019060200180831161114157829003601f168201915b50505050508152602001600782018054600181600116156101000203166002900480601f0160208091040260200160405190810160405280929190818152602001828054600181600116156101000203166002900480156112005780601f106111d557610100808354040283529160200191611200565b820191906000526020600020905b8154815290600101906020018083116111e357829003601f168201915b505050505081526020016008820160009054906101000a900460ff16151515158152602001600982018054600181600116156101000203166002900480601f0160208091040260200160405190810160405280929190818152602001828054600181600116156101000203166002900480156112bd5780601f10611292576101008083540402835291602001916112bd565b820191906000526020600020905b8154815290600101906020018083116112a057829003601f168201915b50505050508152602001600a8201548152602001600b82018054600181600116156101000203166002900480601f0160208091040260200160405190810160405280929190818152602001828054600181600116156101000203166002900480156113695780601f1061133e57610100808354040283529160200191611369565b820191906000526020600020905b81548152906001019060200180831161134c57829003601f168201915b505050505081525050905080602001518160400151826060015183608001518460a001518560c001518660e00151975097509750975097509750975050919395979092949650565b6000600154905090565b600481815481106113cb57600080fd5b906000526020600020016000915090505481565b60036020528060005260406000206000915090508060000160009054906101000a900473ffffffffffffffffffffffffffffffffffffffff1690806001018054600181600116156101000203166002900480601f0160208091040260200160405190810160405280929190818152602001828054600181600116156101000203166002900480156114b15780601f10611486576101008083540402835291602001916114b1565b820191906000526020600020905b81548152906001019060200180831161149457829003601f168201915b505050505090806002015490806003018054600181600116156101000203166002900480601f0160208091040260200160405190810160405280929190818152602001828054600181600116156101000203166002900480156115555780601f1061152a57610100808354040283529160200191611555565b820191906000526020600020905b81548152906001019060200180831161153857829003601f168201915b5050505050905084565b6060600060048054905067ffffffffffffffff8111801561157f57600080fd5b506040519080825280602002602001820160405280156115b357816020015b606081526020019060019003908161159e5790505b50905060005b600480549050811015611bb5576000600260008381526020019081526020016000206040518061018001604052908160008201548152602001600182018054600181600116156101000203166002900480601f01602080910402602001604051908101604052809291908181526020018280546001816001161561010002031660029004801561168a5780601f1061165f5761010080835404028352916020019161168a565b820191906000526020600020905b81548152906001019060200180831161166d57829003601f168201915b50505050508152602001600282018054600181600116156101000203166002900480601f01602080910402602001604051908101604052809291908181526020018280546001816001161561010002031660029004801561172c5780601f106117015761010080835404028352916020019161172c565b820191906000526020600020905b81548152906001019060200180831161170f57829003601f168201915b50505050508152602001600382018054600181600116156101000203166002900480601f0160208091040260200160405190810160405280929190818152602001828054600181600116156101000203166002900480156117ce5780601f106117a3576101008083540402835291602001916117ce565b820191906000526020600020905b8154815290600101906020018083116117b157829003601f168201915b5050505050815260200160048201548152602001600582018054600181600116156101000203166002900480601f01602080910402602001604051908101604052809291908181526020018280546001816001161561010002031660029004801561187a5780601f1061184f5761010080835404028352916020019161187a565b820191906000526020600020905b81548152906001019060200180831161185d57829003601f168201915b50505050508152602001600682018054600181600116156101000203166002900480601f01602080910402602001604051908101604052809291908181526020018280546001816001161561010002031660029004801561191c5780601f106118f15761010080835404028352916020019161191c565b820191906000526020600020905b8154815290600101906020018083116118ff57829003601f168201915b50505050508152602001600782018054600181600116156101000203166002900480601f0160208091040260200160405190810160405280929190818152602001828054600181600116156101000203166002900480156119be5780601f10611993576101008083540402835291602001916119be565b820191906000526020600020905b8154815290600101906020018083116119a157829003601f168201915b505050505081526020016008820160009054906101000a900460ff16151515158152602001600982018054600181600116156101000203166002900480601f016020809104026020016040519081016040528092919081815260200182805460018160011615610100020316600290048015611a7b5780601f10611a5057610100808354040283529160200191611a7b565b820191906000526020600020905b815481529060010190602001808311611a5e57829003601f168201915b50505050508152602001600a8201548152602001600b82018054600181600116156101000203166002900480601f016020809104026020016040519081016040528092919081815260200182805460018160011615610100020316600290048015611b275780601f10611afc57610100808354040283529160200191611b27565b820191906000526020600020905b815481529060010190602001808311611b0a57829003601f168201915b505050505081525050905084604051602001611b439190613141565b604051602081830303815290604052805190602001208160c00151604051602001611b6e9190613141565b604051602081830303815290604052805190602001201415611ba7578060600151838381518110611b9b57fe5b60200260200101819052505b5080806001019150506115b9565b5080915050919050565b60008054906101000a900473ffffffffffffffffffffffffffffffffffffffff1673ffffffffffffffffffffffffffffffffffffffff163373ffffffffffffffffffffffffffffffffffffffff1614611c1757600080fd5b60016002600083815260200190815260200160002060080160006101000a81548160ff02191690831515021790555050565b60006060600060606000600360008781526020019081526020016000206040518060800160405290816000820160009054906101000a900473ffffffffffffffffffffffffffffffffffffffff1673ffffffffffffffffffffffffffffffffffffffff1673ffffffffffffffffffffffffffffffffffffffff168152602001600182018054600181600116156101000203166002900480601f016020809104026020016040519081016040528092919081815260200182805460018160011615610100020316600290048015611d605780601f10611d3557610100808354040283529160200191611d60565b820191906000526020600020905b815481529060010190602001808311611d4357829003601f168201915b5050505050815260200160028201548152602001600382018054600181600116156101000203166002900480601f016020809104026020016040519081016040528092919081815260200182805460018160011615610100020316600290048015611e0c5780601f10611de157610100808354040283529160200191611e0c565b820191906000526020600020905b815481529060010190602001808311611def57829003601f168201915b505050505081525050905080600001518160200151826040015183606001519450945094509450509193509193565b88600260008d81526020019081526020016000206001019080519060200190611e6592919061295d565b5087600260008d81526020019081526020016000206002019080519060200190611e9092919061295d565b5089600260008d81526020019081526020016000206003019080519060200190611ebb92919061295d565b5086600260008d81526020019081526020016000206004018190555085600260008d81526020019081526020016000206005019080519060200190611f0192919061295d565b5084600260008d81526020019081526020016000206006019080519060200190611f2c92919061295d565b5083600260008d81526020019081526020016000206007019080519060200190611f5792919061295d565b5080600260008d8152602001908152602001600020600b019080519060200190611f8292919061295d565b5082600360008d81526020019081526020016000206002018190555081600360008d81526020019081526020016000206003019080519060200190611fc892919061295d565b505050505050505050505050565b6002602052806000526040600020600091509050806000015490806001018054600181600116156101000203166002900480601f0160208091040260200160405190810160405280929190818152602001828054600181600116156101000203166002900480156120885780601f1061205d57610100808354040283529160200191612088565b820191906000526020600020905b81548152906001019060200180831161206b57829003601f168201915b505050505090806002018054600181600116156101000203166002900480601f0160208091040260200160405190810160405280929190818152602001828054600181600116156101000203166002900480156121265780601f106120fb57610100808354040283529160200191612126565b820191906000526020600020905b81548152906001019060200180831161210957829003601f168201915b505050505090806003018054600181600116156101000203166002900480601f0160208091040260200160405190810160405280929190818152602001828054600181600116156101000203166002900480156121c45780601f10612199576101008083540402835291602001916121c4565b820191906000526020600020905b8154815290600101906020018083116121a757829003601f168201915b505050505090806004015490806005018054600181600116156101000203166002900480601f0160208091040260200160405190810160405280929190818152602001828054600181600116156101000203166002900480156122685780601f1061223d57610100808354040283529160200191612268565b820191906000526020600020905b81548152906001019060200180831161224b57829003601f168201915b505050505090806006018054600181600116156101000203166002900480601f0160208091040260200160405190810160405280929190818152602001828054600181600116156101000203166002900480156123065780601f106122db57610100808354040283529160200191612306565b820191906000526020600020905b8154815290600101906020018083116122e957829003601f168201915b505050505090806007018054600181600116156101000203166002900480601f0160208091040260200160405190810160405280929190818152602001828054600181600116156101000203166002900480156123a45780601f10612379576101008083540402835291602001916123a4565b820191906000526020600020905b81548152906001019060200180831161238757829003601f168201915b5050505050908060080160009054906101000a900460ff1690806009018054600181600116156101000203166002900480601f0160208091040260200160405190810160405280929190818152602001828054600181600116156101000203166002900480156124555780601f1061242a57610100808354040283529160200191612455565b820191906000526020600020905b81548152906001019060200180831161243857829003601f168201915b50505050509080600a01549080600b018054600181600116156101000203166002900480601f0160208091040260200160405190810160405280929190818152602001828054600181600116156101000203166002900480156124f95780601f106124ce576101008083540402835291602001916124f9565b820191906000526020600020905b8154815290600101906020018083116124dc57829003601f168201915b505050505090508c565b60008054906101000a900473ffffffffffffffffffffffffffffffffffffffff1673ffffffffffffffffffffffffffffffffffffffff163373ffffffffffffffffffffffffffffffffffffffff161461255b57600080fd5b600154600260006001548152602001908152602001600020600001819055508860026000600154815260200190815260200160002060010190805190602001906125a692919061295d565b508760026000600154815260200190815260200160002060020190805190602001906125d392919061295d565b5089600260006001548152602001908152602001600020600301908051906020019061260092919061295d565b50866002600060015481526020019081526020016000206004018190555085600260006001548152602001908152602001600020600501908051906020019061264a92919061295d565b5084600260006001548152602001908152602001600020600601908051906020019061267792919061295d565b508360026000600154815260200190815260200160002060070190805190602001906126a492919061295d565b50600060026000600154815260200190815260200160002060080160006101000a81548160ff02191690831515021790555082600260006001548152602001908152602001600020600a018190555081600260006001548152602001908152602001600020600901908051906020019061271f92919061295d565b5080600260006001548152602001908152602001600020600b01908051906020019061274c92919061295d565b506004600154908060018154018082558091505060019003906000526020600020016000909190919091505560008054906101000a900473ffffffffffffffffffffffffffffffffffffffff1660036000600154815260200190815260200160002060000160006101000a81548173ffffffffffffffffffffffffffffffffffffffff021916908373ffffffffffffffffffffffffffffffffffffffff1602179055506040518060400160405280600681526020017f4553505249540000000000000000000000000000000000000000000000000000815250600360006001548152602001908152602001600020600101908051906020019061285092919061295d565b50600560015490806001815401808255809150506001900390600052602060002001600090919091909150557fa5ffe0b70c36e4e7f331020155daf1dea7043ac4fbc812d30cf839b74298ef008a6001546040516128af9291906132a3565b60405180910390a16001806000828254019250508190555050505050505050505050565b60008054906101000a900473ffffffffffffffffffffffffffffffffffffffff1673ffffffffffffffffffffffffffffffffffffffff163373ffffffffffffffffffffffffffffffffffffffff161461292b57600080fd5b60006002600083815260200190815260200160002060080160006101000a81548160ff02191690831515021790555050565b828054600181600116156101000203166002900490600052602060002090601f01602090048101928261299357600085556129da565b82601f106129ac57805160ff19168380011785556129da565b828001600101855582156129da579182015b828111156129d95782518255916020019190600101906129be565b5b5090506129e791906129eb565b5090565b5b80821115612a045760008160009055506001016129ec565b5090565b6000612a1b612a1684613444565b613413565b905082815260208101848484011115612a3357600080fd5b612a3e84828561352d565b509392505050565b600082601f830112612a5757600080fd5b8135612a67848260208601612a08565b91505092915050565b600081359050612a7f81613582565b92915050565b600060208284031215612a9757600080fd5b600082013567ffffffffffffffff811115612ab157600080fd5b612abd84828501612a46565b91505092915050565b60008060008060008060008060006101208a8c031215612ae557600080fd5b60008a013567ffffffffffffffff811115612aff57600080fd5b612b0b8c828d01612a46565b99505060208a013567ffffffffffffffff811115612b2857600080fd5b612b348c828d01612a46565b98505060408a013567ffffffffffffffff811115612b5157600080fd5b612b5d8c828d01612a46565b9750506060612b6e8c828d01612a70565b96505060808a013567ffffffffffffffff811115612b8b57600080fd5b612b978c828d01612a46565b95505060a08a013567ffffffffffffffff811115612bb457600080fd5b612bc08c828d01612a46565b94505060c08a013567ffffffffffffffff811115612bdd57600080fd5b612be98c828d01612a46565b93505060e0612bfa8c828d01612a70565b9250506101008a013567ffffffffffffffff811115612c1857600080fd5b612c248c828d01612a46565b9150509295985092959850929598565b6000806000806000806000806000806101408b8d031215612c5457600080fd5b60008b013567ffffffffffffffff811115612c6e57600080fd5b612c7a8d828e01612a46565b9a505060208b013567ffffffffffffffff811115612c9757600080fd5b612ca38d828e01612a46565b99505060408b013567ffffffffffffffff811115612cc057600080fd5b612ccc8d828e01612a46565b9850506060612cdd8d828e01612a70565b97505060808b013567ffffffffffffffff811115612cfa57600080fd5b612d068d828e01612a46565b96505060a08b013567ffffffffffffffff811115612d2357600080fd5b612d2f8d828e01612a46565b95505060c08b013567ffffffffffffffff811115612d4c57600080fd5b612d588d828e01612a46565b94505060e0612d698d828e01612a70565b9350506101008b013567ffffffffffffffff811115612d8757600080fd5b612d938d828e01612a46565b9250506101208b013567ffffffffffffffff811115612db157600080fd5b612dbd8d828e01612a46565b9150509295989b9194979a5092959850565b600060208284031215612de157600080fd5b6000612def84828501612a70565b91505092915050565b60008060008060008060008060008060006101608c8e031215612e1a57600080fd5b6000612e288e828f01612a70565b9b505060208c013567ffffffffffffffff811115612e4557600080fd5b612e518e828f01612a46565b9a505060408c013567ffffffffffffffff811115612e6e57600080fd5b612e7a8e828f01612a46565b99505060608c013567ffffffffffffffff811115612e9757600080fd5b612ea38e828f01612a46565b9850506080612eb48e828f01612a70565b97505060a08c013567ffffffffffffffff811115612ed157600080fd5b612edd8e828f01612a46565b96505060c08c013567ffffffffffffffff811115612efa57600080fd5b612f068e828f01612a46565b95505060e08c013567ffffffffffffffff811115612f2357600080fd5b612f2f8e828f01612a46565b945050610100612f418e828f01612a70565b9350506101208c013567ffffffffffffffff811115612f5f57600080fd5b612f6b8e828f01612a46565b9250506101408c013567ffffffffffffffff811115612f8957600080fd5b612f958e828f01612a46565b9150509295989b509295989b9093969950565b6000612fb4838361304f565b905092915050565b612fc5816134e5565b82525050565b6000612fd682613484565b612fe081856134a7565b935083602082028501612ff285613474565b8060005b8581101561302e578484038952815161300f8582612fa8565b945061301a8361349a565b925060208a01995050600181019050612ff6565b50829750879550505050505092915050565b613049816134f7565b82525050565b600061305a8261348f565b61306481856134b8565b935061307481856020860161353c565b61307d81613571565b840191505092915050565b60006130938261348f565b61309d81856134c9565b93506130ad81856020860161353c565b6130b681613571565b840191505092915050565b60006130cc8261348f565b6130d681856134da565b93506130e681856020860161353c565b80840191505092915050565b60006130ff6006836134c9565b91507f45535052495400000000000000000000000000000000000000000000000000006000830152602082019050919050565b61313b81613523565b82525050565b600061314d82846130c1565b915081905092915050565b600060808201905061316d6000830187612fbc565b818103602083015261317f8186613088565b905061318e6040830185613132565b81810360608301526131a08184613088565b905095945050505050565b600060208201905081810360008301526131c58184612fcb565b905092915050565b60006020820190506131e26000830184613040565b92915050565b600060208201905081810360008301526132028184613088565b905092915050565b600060e0820190508181036000830152613224818a613088565b905081810360208301526132388189613088565b9050818103604083015261324c8188613088565b905061325b6060830187613132565b818103608083015261326d8186613088565b905081810360a08301526132818185613088565b905081810360c08301526132958184613088565b905098975050505050505050565b600060608201905081810360008301526132bd8185613088565b905081810360208301526132d0816130f2565b90506132df6040830184613132565b9392505050565b600060208201905081810360008301526132ff816130f2565b9050919050565b600060208201905061331b6000830184613132565b92915050565b600061018082019050613337600083018f613132565b8181036020830152613349818e613088565b9050818103604083015261335d818d613088565b90508181036060830152613371818c613088565b9050613380608083018b613132565b81810360a0830152613392818a613088565b905081810360c08301526133a68189613088565b905081810360e08301526133ba8188613088565b90506133ca610100830187613040565b8181036101208301526133dd8186613088565b90506133ed610140830185613132565b8181036101608301526134008184613088565b90509d9c50505050505050505050505050565b6000604051905081810181811067ffffffffffffffff8211171561343a5761343961356f565b5b8060405250919050565b600067ffffffffffffffff82111561345f5761345e61356f565b5b601f19601f8301169050602081019050919050565b6000819050602082019050919050565b600081519050919050565b600081519050919050565b6000602082019050919050565b600082825260208201905092915050565b600082825260208201905092915050565b600082825260208201905092915050565b600081905092915050565b60006134f082613503565b9050919050565b60008115159050919050565b600073ffffffffffffffffffffffffffffffffffffffff82169050919050565b6000819050919050565b82818337600083830152505050565b60005b8381101561355a57808201518184015260208101905061353f565b83811115613569576000848401525b50505050565bfe5b6000601f19601f8301169050919050565b61358b81613523565b811461359657600080fd5b5056fea26469706673582212207988a838fd16867e3f00b442891e1b04de276540c36b8490c614aa1f7c8c5b4b64736f6c63430007060033",
  "immutableReferences": {},
  "source": "//SPDX-License-Identifier: UNLICENSED\r\npragma solidity ^0.7.4;\r\npragma experimental ABIEncoderV2;\r\ncontract Certificate{\r\n\r\n    address owner;\r\n    uint256 numCertificateIssued;\r\n\r\n          constructor() {\r\n         owner = msg.sender;\r\n        numCertificateIssued=0;\r\n    }\r\n\r\n    modifier onlyOwner{\r\n        require(msg.sender == owner);\r\n        _;\r\n    }\r\n\r\n    struct IssuerData{\r\n        address issuerAddress; //\r\n         string issuerName;//\r\n         uint256 dateRealisation;//\r\n        string numCertificat;//\r\n    }\r\n\r\n    struct CertificateBody{\r\n        uint256 id;\r\n        string Specialite;//\r\n        string Session;//\r\n        string Nom;//\r\n        uint256 dateNaissance;//\r\n        string lieuNaissance;//\r\n        string identifiant;//\r\n        string Nationalite;//\r\n        bool isDeleted;\r\n        string numCertificat;//\r\n        uint256 dateRealisation;//\r\n        string userid;\r\n    }\r\n\r\n\r\n    mapping(uint256 => CertificateBody) public Certificates;\r\n    mapping(uint256 => IssuerData) public Issuers;\r\n\r\n    uint256[] public certs;\r\n    uint256[] public iss;\r\n\r\n    event Issued(\r\n        string etudiant,\r\n        string certifier,\r\n        uint256 id\r\n    );\r\n\r\n    function issueCertificate(\r\n    string memory _etudiant,\r\n    string memory _specialite,\r\n    string memory _session,\r\n    uint256 _dateNaissance,\r\n    string memory _lieuNaissance,\r\n    string memory _identifiant,\r\n    string memory _nationalite,\r\n    uint256 _dateRealisation,\r\n    string memory _numCertificat,\r\n    string memory _userid) onlyOwner public{\r\n        \r\n        Certificates[numCertificateIssued].id = numCertificateIssued;\r\n        Certificates[numCertificateIssued].Specialite = _specialite;\r\n        Certificates[numCertificateIssued].Session = _session;\r\n        Certificates[numCertificateIssued].Nom = _etudiant;\r\n        Certificates[numCertificateIssued].dateNaissance=_dateNaissance;\r\n        Certificates[numCertificateIssued].lieuNaissance=_lieuNaissance;\r\n        Certificates[numCertificateIssued].identifiant=_identifiant;\r\n        Certificates[numCertificateIssued].Nationalite=_nationalite;\r\n        Certificates[numCertificateIssued].isDeleted=false;\r\n        \r\n        Certificates[numCertificateIssued].dateRealisation=_dateRealisation;\r\n            Certificates[numCertificateIssued].numCertificat=_numCertificat;\r\n            Certificates[numCertificateIssued].userid = _userid;\r\n        \r\n        certs.push(numCertificateIssued);\r\n\r\n            Issuers[numCertificateIssued].issuerAddress=owner;\r\n            Issuers[numCertificateIssued].issuerName=\"ESPRIT\";\r\n            //Issuers[numCertificateIssued].dateRealisation=_dateRealisation;\r\n            //Issuers[numCertificateIssued].numCertificat=_numCertificat;\r\n             iss.push(numCertificateIssued);\r\n\r\n        emit Issued(_etudiant,\"ESPRIT\",numCertificateIssued);\r\n\r\n        numCertificateIssued +=1;\r\n\r\n    }\r\n    \r\n    function updateCertificate(uint256 _id,\r\n    string memory _etudiant,\r\n    string memory _specialite,\r\n    string memory _session,\r\n    uint256 _dateNaissance,\r\n    string memory _lieuNaissance,\r\n    string memory _identifiant,\r\n    string memory _nationalite,\r\n    uint256 _dateRealisation,\r\n    string memory _numCertificat,\r\n    string memory _userid) public{\r\n        \r\n        Certificates[_id].Specialite = _specialite;\r\n        Certificates[_id].Session = _session;\r\n        Certificates[_id].Nom = _etudiant;\r\n        Certificates[_id].dateNaissance=_dateNaissance;\r\n        Certificates[_id].lieuNaissance=_lieuNaissance;\r\n        Certificates[_id].identifiant=_identifiant;\r\n        Certificates[_id].Nationalite=_nationalite;\r\n        Certificates[_id].userid=_userid;\r\n        \r\n            Issuers[_id].dateRealisation=_dateRealisation;\r\n            Issuers[_id].numCertificat=_numCertificat;\r\n             \r\n        \r\n    }\r\n    \r\n    function deleteCertificate(uint256 _id) onlyOwner public\r\n    {\r\n        Certificates[_id].isDeleted=true;\r\n    }\r\n    \r\n    function activateCertificate(uint256 _id) onlyOwner public\r\n    {\r\n        Certificates[_id].isDeleted=false;\r\n    }\r\n\r\n    function getCertificate(uint256 _id)view public returns(string memory,string memory,string memory,uint256,string memory,string memory,string memory){\r\n        CertificateBody memory c = Certificates[_id];\r\n        return(c.Specialite,c.Session,c.Nom,c.dateNaissance,c.lieuNaissance,c.identifiant,c.Nationalite);\r\n    }\r\n\r\n    function getIssuer(uint256 _id) view public returns(address,string memory,uint256,string memory){\r\n        IssuerData memory i = Issuers[_id];\r\n        return(i.issuerAddress,i.issuerName,i.dateRealisation,i.numCertificat);\r\n    }\r\n\r\n/*,string[] memory _specialite ,string[] memory _session ,uint256[] memory _dateNaissance,string[] memory _lieuNaissance\r\n    \r\n    ,string[] memory _identif,string[] memory _nationalite*/\r\n    \r\n    function getCertificates(string memory _identifiant)view public returns(string[] memory )\r\n    {\r\n        string[] memory _etudiant = new string[](certs.length);\r\n        \r\n        \r\n        for(uint256 i=0;i<certs.length;i++)\r\n        {\r\n            CertificateBody memory c = Certificates[i];\r\n            if(keccak256(abi.encodePacked((c.identifiant))) == keccak256(abi.encodePacked((_identifiant))))\r\n            {\r\n                _etudiant[i] = c.Nom;\r\n                //_specialite[i] = c.Specialite;\r\n                //_session[i] = c.Session;\r\n                //_dateNaissance[i] = c.dateNaissance;\r\n                //_lieuNaissance[i] = c.lieuNaissance;\r\n                //_identif[i] = c.identifiant;\r\n                //_nationalite[i] = c.Nationalite;\r\n            }\r\n        }\r\n        \r\n        return(_etudiant);\r\n        //,_specialite,_session,_dateNaissance,_lieuNaissance,_identif,_nationalite\r\n        \r\n    }\r\n\r\n    function verifyCertificate(\r\n    string memory _etudiant,\r\n    string memory _specialite,\r\n    string memory _session,\r\n    uint256 _dateNaissance,\r\n    string memory _lieuNaissance,\r\n    string memory _identifiant,\r\n    string memory _nationalite,\r\n    uint256 _dateRealisation,\r\n    string memory _numCertificat)public view returns(bool) {\r\n        CertificateBody memory diplome = Certificates[numCertificateIssued];\r\n        IssuerData memory issuer = Issuers[numCertificateIssued];\r\n        if(keccak256(abi.encode(issuer.issuerName)) == keccak256(abi.encode(\"ESPRIT\")) &&\r\n            keccak256(abi.encode(diplome.Specialite)) == keccak256(abi.encode(_specialite)) &&\r\n            keccak256(abi.encode(diplome.Session)) == keccak256(abi.encode(_session)) &&\r\n            keccak256(abi.encode(diplome.Nom)) == keccak256(abi.encode(_etudiant)) &&\r\n            keccak256(abi.encode(diplome.dateNaissance)) == keccak256(abi.encode(_dateNaissance)) &&\r\n            keccak256(abi.encode(diplome.lieuNaissance)) == keccak256(abi.encode(_lieuNaissance)) &&\r\n            keccak256(abi.encode(diplome.identifiant)) == keccak256(abi.encode(_identifiant)) &&\r\n            keccak256(abi.encode(diplome.Nationalite)) == keccak256(abi.encode(_nationalite)) &&\r\n            keccak256(abi.encode(issuer.dateRealisation)) == keccak256(abi.encode(_dateRealisation)) &&\r\n            keccak256(abi.encode(issuer.numCertificat)) == keccak256(abi.encode(_numCertificat)) ){\r\n\r\n               return true;\r\n\r\n            }else\r\n            {\r\n                return false;\r\n            }\r\n\r\n\r\n    }\r\n\r\n\r\n    function totalCertificates() view public returns(uint256){\r\n        return numCertificateIssued;\r\n    }\r\n\r\n}\r\n\r\n\r\n",
  "sourcePath": "C:/Users/Omar/Desktop/Haithem/contracts/Certificate.sol",
  "compiler": {
    "name": "solc",
    "version": "0.7.6+commit.7338295f.Emscripten.clang"
  },
  "schemaVersion": "3.3.1",
  "updatedAt": "2021-04-13T21:23:40.026Z",
  "networkType": "ethereum",
  "devdoc": {
    "kind": "dev",
    "methods": {},
    "version": 1
  },
  "userdoc": {
    "kind": "user",
    "methods": {},
    "version": 1
  }
}